{
	"contracts/NonAdminLibrary.sol": {
		"NonAdminLibrary": {
			"abi": [
				{
					"inputs": [],
					"stateMutability": "nonpayable",
					"type": "constructor"
				},
				{
					"anonymous": false,
					"inputs": [
						{
							"indexed": false,
							"internalType": "string",
							"name": "isbn",
							"type": "string"
						}
					],
					"name": "BookAdded",
					"type": "event"
				},
				{
					"inputs": [
						{
							"internalType": "string",
							"name": "_isbn",
							"type": "string"
						},
						{
							"internalType": "string",
							"name": "_title",
							"type": "string"
						},
						{
							"internalType": "uint256",
							"name": "_year",
							"type": "uint256"
						},
						{
							"internalType": "string",
							"name": "_author",
							"type": "string"
						}
					],
					"name": "addBook",
					"outputs": [],
					"stateMutability": "nonpayable",
					"type": "function"
				},
				{
					"inputs": [
						{
							"internalType": "string",
							"name": "",
							"type": "string"
						}
					],
					"name": "books",
					"outputs": [
						{
							"internalType": "string",
							"name": "isbn",
							"type": "string"
						},
						{
							"internalType": "string",
							"name": "title",
							"type": "string"
						},
						{
							"internalType": "uint256",
							"name": "year",
							"type": "uint256"
						},
						{
							"internalType": "string",
							"name": "author",
							"type": "string"
						}
					],
					"stateMutability": "view",
					"type": "function"
				}
			],
			"devdoc": {
				"kind": "dev",
				"methods": {},
				"version": 1
			},
			"evm": {
				"assembly": "    /* \"contracts/NonAdminLibrary.sol\":60:684  contract NonAdminLibrary {... */\n  mstore(0x40, 0x80)\n    /* \"contracts/NonAdminLibrary.sol\":291:307  constructor() {} */\n  callvalue\n  dup1\n  iszero\n  tag_1\n  jumpi\n  0x00\n  dup1\n  revert\ntag_1:\n  pop\n    /* \"contracts/NonAdminLibrary.sol\":60:684  contract NonAdminLibrary {... */\n  dataSize(sub_0)\n  dup1\n  dataOffset(sub_0)\n  0x00\n  codecopy\n  0x00\n  return\nstop\n\nsub_0: assembly {\n        /* \"contracts/NonAdminLibrary.sol\":60:684  contract NonAdminLibrary {... */\n      mstore(0x40, 0x80)\n      callvalue\n      dup1\n      iszero\n      tag_1\n      jumpi\n      0x00\n      dup1\n      revert\n    tag_1:\n      pop\n      jumpi(tag_2, lt(calldatasize, 0x04))\n      shr(0xe0, calldataload(0x00))\n      dup1\n      0x2b9dfe80\n      eq\n      tag_3\n      jumpi\n      dup1\n      0x598e1455\n      eq\n      tag_4\n      jumpi\n    tag_2:\n      0x00\n      dup1\n      revert\n        /* \"contracts/NonAdminLibrary.sol\":209:245  mapping(string => Book) public books */\n    tag_3:\n      tag_5\n      0x04\n      dup1\n      calldatasize\n      sub\n      dup2\n      add\n      swap1\n      tag_6\n      swap2\n      swap1\n      tag_7\n      jump\t// in\n    tag_6:\n      tag_8\n      jump\t// in\n    tag_5:\n      mload(0x40)\n      tag_9\n      swap5\n      swap4\n      swap3\n      swap2\n      swap1\n      tag_10\n      jump\t// in\n    tag_9:\n      mload(0x40)\n      dup1\n      swap2\n      sub\n      swap1\n      return\n        /* \"contracts/NonAdminLibrary.sol\":315:681  function addBook(string memory _isbn, string memory _title, uint _year, string memory _author) public {... */\n    tag_4:\n      tag_11\n      0x04\n      dup1\n      calldatasize\n      sub\n      dup2\n      add\n      swap1\n      tag_12\n      swap2\n      swap1\n      tag_13\n      jump\t// in\n    tag_12:\n      tag_14\n      jump\t// in\n    tag_11:\n      stop\n        /* \"contracts/NonAdminLibrary.sol\":209:245  mapping(string => Book) public books */\n    tag_8:\n      0x00\n      dup2\n      dup1\n      mload\n      0x20\n      dup2\n      add\n      dup3\n      add\n      dup1\n      mload\n      dup5\n      dup3\n      mstore\n      0x20\n      dup4\n      add\n      0x20\n      dup6\n      add\n      keccak256\n      dup2\n      dup4\n      mstore\n      dup1\n      swap6\n      pop\n      pop\n      pop\n      pop\n      pop\n      pop\n      0x00\n      swap2\n      pop\n      swap1\n      pop\n      dup1\n      0x00\n      add\n      dup1\n      sload\n      tag_15\n      swap1\n      tag_16\n      jump\t// in\n    tag_15:\n      dup1\n      0x1f\n      add\n      0x20\n      dup1\n      swap2\n      div\n      mul\n      0x20\n      add\n      mload(0x40)\n      swap1\n      dup2\n      add\n      0x40\n      mstore\n      dup1\n      swap3\n      swap2\n      swap1\n      dup2\n      dup2\n      mstore\n      0x20\n      add\n      dup3\n      dup1\n      sload\n      tag_17\n      swap1\n      tag_16\n      jump\t// in\n    tag_17:\n      dup1\n      iszero\n      tag_18\n      jumpi\n      dup1\n      0x1f\n      lt\n      tag_19\n      jumpi\n      0x0100\n      dup1\n      dup4\n      sload\n      div\n      mul\n      dup4\n      mstore\n      swap2\n      0x20\n      add\n      swap2\n      jump(tag_18)\n    tag_19:\n      dup3\n      add\n      swap2\n      swap1\n      0x00\n      mstore\n      keccak256(0x00, 0x20)\n      swap1\n    tag_20:\n      dup2\n      sload\n      dup2\n      mstore\n      swap1\n      0x01\n      add\n      swap1\n      0x20\n      add\n      dup1\n      dup4\n      gt\n      tag_20\n      jumpi\n      dup3\n      swap1\n      sub\n      0x1f\n      and\n      dup3\n      add\n      swap2\n    tag_18:\n      pop\n      pop\n      pop\n      pop\n      pop\n      swap1\n      dup1\n      0x01\n      add\n      dup1\n      sload\n      tag_21\n      swap1\n      tag_16\n      jump\t// in\n    tag_21:\n      dup1\n      0x1f\n      add\n      0x20\n      dup1\n      swap2\n      div\n      mul\n      0x20\n      add\n      mload(0x40)\n      swap1\n      dup2\n      add\n      0x40\n      mstore\n      dup1\n      swap3\n      swap2\n      swap1\n      dup2\n      dup2\n      mstore\n      0x20\n      add\n      dup3\n      dup1\n      sload\n      tag_22\n      swap1\n      tag_16\n      jump\t// in\n    tag_22:\n      dup1\n      iszero\n      tag_23\n      jumpi\n      dup1\n      0x1f\n      lt\n      tag_24\n      jumpi\n      0x0100\n      dup1\n      dup4\n      sload\n      div\n      mul\n      dup4\n      mstore\n      swap2\n      0x20\n      add\n      swap2\n      jump(tag_23)\n    tag_24:\n      dup3\n      add\n      swap2\n      swap1\n      0x00\n      mstore\n      keccak256(0x00, 0x20)\n      swap1\n    tag_25:\n      dup2\n      sload\n      dup2\n      mstore\n      swap1\n      0x01\n      add\n      swap1\n      0x20\n      add\n      dup1\n      dup4\n      gt\n      tag_25\n      jumpi\n      dup3\n      swap1\n      sub\n      0x1f\n      and\n      dup3\n      add\n      swap2\n    tag_23:\n      pop\n      pop\n      pop\n      pop\n      pop\n      swap1\n      dup1\n      0x02\n      add\n      sload\n      swap1\n      dup1\n      0x03\n      add\n      dup1\n      sload\n      tag_26\n      swap1\n      tag_16\n      jump\t// in\n    tag_26:\n      dup1\n      0x1f\n      add\n      0x20\n      dup1\n      swap2\n      div\n      mul\n      0x20\n      add\n      mload(0x40)\n      swap1\n      dup2\n      add\n      0x40\n      mstore\n      dup1\n      swap3\n      swap2\n      swap1\n      dup2\n      dup2\n      mstore\n      0x20\n      add\n      dup3\n      dup1\n      sload\n      tag_27\n      swap1\n      tag_16\n      jump\t// in\n    tag_27:\n      dup1\n      iszero\n      tag_28\n      jumpi\n      dup1\n      0x1f\n      lt\n      tag_29\n      jumpi\n      0x0100\n      dup1\n      dup4\n      sload\n      div\n      mul\n      dup4\n      mstore\n      swap2\n      0x20\n      add\n      swap2\n      jump(tag_28)\n    tag_29:\n      dup3\n      add\n      swap2\n      swap1\n      0x00\n      mstore\n      keccak256(0x00, 0x20)\n      swap1\n    tag_30:\n      dup2\n      sload\n      dup2\n      mstore\n      swap1\n      0x01\n      add\n      swap1\n      0x20\n      add\n      dup1\n      dup4\n      gt\n      tag_30\n      jumpi\n      dup3\n      swap1\n      sub\n      0x1f\n      and\n      dup3\n      add\n      swap2\n    tag_28:\n      pop\n      pop\n      pop\n      pop\n      pop\n      swap1\n      pop\n      dup5\n      jump\t// out\n        /* \"contracts/NonAdminLibrary.sol\":315:681  function addBook(string memory _isbn, string memory _title, uint _year, string memory _author) public {... */\n    tag_14:\n        /* \"contracts/NonAdminLibrary.sol\":458:459  0 */\n      0x00\n        /* \"contracts/NonAdminLibrary.sol\":442:447  _isbn */\n      dup5\n        /* \"contracts/NonAdminLibrary.sol\":436:455  bytes(_isbn).length */\n      mload\n        /* \"contracts/NonAdminLibrary.sol\":436:459  bytes(_isbn).length > 0 */\n      gt\n        /* \"contracts/NonAdminLibrary.sol\":428:484  require(bytes(_isbn).length > 0, \"ISBN cannot be empty\") */\n      tag_32\n      jumpi\n      mload(0x40)\n      0x08c379a000000000000000000000000000000000000000000000000000000000\n      dup2\n      mstore\n      0x04\n      add\n      tag_33\n      swap1\n      tag_34\n      jump\t// in\n    tag_33:\n      mload(0x40)\n      dup1\n      swap2\n      sub\n      swap1\n      revert\n    tag_32:\n        /* \"contracts/NonAdminLibrary.sol\":538:539  0 */\n      0x00\n        /* \"contracts/NonAdminLibrary.sol\":509:514  books */\n      dup1\n        /* \"contracts/NonAdminLibrary.sol\":515:520  _isbn */\n      dup6\n        /* \"contracts/NonAdminLibrary.sol\":509:521  books[_isbn] */\n      mload(0x40)\n      tag_35\n      swap2\n      swap1\n      tag_36\n      jump\t// in\n    tag_35:\n      swap1\n      dup2\n      mstore\n      0x20\n      add\n      mload(0x40)\n      dup1\n      swap2\n      sub\n      swap1\n      keccak256\n        /* \"contracts/NonAdminLibrary.sol\":509:526  books[_isbn].isbn */\n      0x00\n      add\n        /* \"contracts/NonAdminLibrary.sol\":503:534  bytes(books[_isbn].isbn).length */\n      dup1\n      sload\n      tag_37\n      swap1\n      tag_16\n      jump\t// in\n    tag_37:\n      swap1\n      pop\n        /* \"contracts/NonAdminLibrary.sol\":503:539  bytes(books[_isbn].isbn).length == 0 */\n      eq\n        /* \"contracts/NonAdminLibrary.sol\":495:578  require(bytes(books[_isbn].isbn).length == 0, \"Book with this ISBN already exists\") */\n      tag_38\n      jumpi\n      mload(0x40)\n      0x08c379a000000000000000000000000000000000000000000000000000000000\n      dup2\n      mstore\n      0x04\n      add\n      tag_39\n      swap1\n      tag_40\n      jump\t// in\n    tag_39:\n      mload(0x40)\n      dup1\n      swap2\n      sub\n      swap1\n      revert\n    tag_38:\n        /* \"contracts/NonAdminLibrary.sol\":606:641  Book(_isbn, _title, _year, _author) */\n      mload(0x40)\n      dup1\n      0x80\n      add\n      0x40\n      mstore\n      dup1\n        /* \"contracts/NonAdminLibrary.sol\":611:616  _isbn */\n      dup6\n        /* \"contracts/NonAdminLibrary.sol\":606:641  Book(_isbn, _title, _year, _author) */\n      dup2\n      mstore\n      0x20\n      add\n        /* \"contracts/NonAdminLibrary.sol\":618:624  _title */\n      dup5\n        /* \"contracts/NonAdminLibrary.sol\":606:641  Book(_isbn, _title, _year, _author) */\n      dup2\n      mstore\n      0x20\n      add\n        /* \"contracts/NonAdminLibrary.sol\":626:631  _year */\n      dup4\n        /* \"contracts/NonAdminLibrary.sol\":606:641  Book(_isbn, _title, _year, _author) */\n      dup2\n      mstore\n      0x20\n      add\n        /* \"contracts/NonAdminLibrary.sol\":633:640  _author */\n      dup3\n        /* \"contracts/NonAdminLibrary.sol\":606:641  Book(_isbn, _title, _year, _author) */\n      dup2\n      mstore\n      pop\n        /* \"contracts/NonAdminLibrary.sol\":591:596  books */\n      0x00\n        /* \"contracts/NonAdminLibrary.sol\":597:602  _isbn */\n      dup6\n        /* \"contracts/NonAdminLibrary.sol\":591:603  books[_isbn] */\n      mload(0x40)\n      tag_41\n      swap2\n      swap1\n      tag_36\n      jump\t// in\n    tag_41:\n      swap1\n      dup2\n      mstore\n      0x20\n      add\n      mload(0x40)\n      dup1\n      swap2\n      sub\n      swap1\n      keccak256\n        /* \"contracts/NonAdminLibrary.sol\":591:641  books[_isbn] = Book(_isbn, _title, _year, _author) */\n      0x00\n      dup3\n      add\n      mload\n      dup2\n      0x00\n      add\n      swap1\n      dup2\n      tag_42\n      swap2\n      swap1\n      tag_43\n      jump\t// in\n    tag_42:\n      pop\n      0x20\n      dup3\n      add\n      mload\n      dup2\n      0x01\n      add\n      swap1\n      dup2\n      tag_44\n      swap2\n      swap1\n      tag_43\n      jump\t// in\n    tag_44:\n      pop\n      0x40\n      dup3\n      add\n      mload\n      dup2\n      0x02\n      add\n      sstore\n      0x60\n      dup3\n      add\n      mload\n      dup2\n      0x03\n      add\n      swap1\n      dup2\n      tag_45\n      swap2\n      swap1\n      tag_43\n      jump\t// in\n    tag_45:\n      pop\n      swap1\n      pop\n      pop\n        /* \"contracts/NonAdminLibrary.sol\":657:673  BookAdded(_isbn) */\n      0x272b168e2afaa6efdce672a6f4f4f1b37eb61405daf39e4b520beeeacb2596ef\n        /* \"contracts/NonAdminLibrary.sol\":667:672  _isbn */\n      dup5\n        /* \"contracts/NonAdminLibrary.sol\":657:673  BookAdded(_isbn) */\n      mload(0x40)\n      tag_46\n      swap2\n      swap1\n      tag_47\n      jump\t// in\n    tag_46:\n      mload(0x40)\n      dup1\n      swap2\n      sub\n      swap1\n      log1\n        /* \"contracts/NonAdminLibrary.sol\":315:681  function addBook(string memory _isbn, string memory _title, uint _year, string memory _author) public {... */\n      pop\n      pop\n      pop\n      pop\n      jump\t// out\n        /* \"#utility.yul\":7:82   */\n    tag_48:\n        /* \"#utility.yul\":40:46   */\n      0x00\n        /* \"#utility.yul\":73:75   */\n      0x40\n        /* \"#utility.yul\":67:76   */\n      mload\n        /* \"#utility.yul\":57:76   */\n      swap1\n      pop\n        /* \"#utility.yul\":7:82   */\n      swap1\n      jump\t// out\n        /* \"#utility.yul\":88:205   */\n    tag_49:\n        /* \"#utility.yul\":197:198   */\n      0x00\n        /* \"#utility.yul\":194:195   */\n      dup1\n        /* \"#utility.yul\":187:199   */\n      revert\n        /* \"#utility.yul\":211:328   */\n    tag_50:\n        /* \"#utility.yul\":320:321   */\n      0x00\n        /* \"#utility.yul\":317:318   */\n      dup1\n        /* \"#utility.yul\":310:322   */\n      revert\n        /* \"#utility.yul\":334:451   */\n    tag_51:\n        /* \"#utility.yul\":443:444   */\n      0x00\n        /* \"#utility.yul\":440:441   */\n      dup1\n        /* \"#utility.yul\":433:445   */\n      revert\n        /* \"#utility.yul\":457:574   */\n    tag_52:\n        /* \"#utility.yul\":566:567   */\n      0x00\n        /* \"#utility.yul\":563:564   */\n      dup1\n        /* \"#utility.yul\":556:568   */\n      revert\n        /* \"#utility.yul\":580:682   */\n    tag_53:\n        /* \"#utility.yul\":621:627   */\n      0x00\n        /* \"#utility.yul\":672:674   */\n      0x1f\n        /* \"#utility.yul\":668:675   */\n      not\n        /* \"#utility.yul\":663:665   */\n      0x1f\n        /* \"#utility.yul\":656:661   */\n      dup4\n        /* \"#utility.yul\":652:666   */\n      add\n        /* \"#utility.yul\":648:676   */\n      and\n        /* \"#utility.yul\":638:676   */\n      swap1\n      pop\n        /* \"#utility.yul\":580:682   */\n      swap2\n      swap1\n      pop\n      jump\t// out\n        /* \"#utility.yul\":688:868   */\n    tag_54:\n        /* \"#utility.yul\":736:813   */\n      0x4e487b7100000000000000000000000000000000000000000000000000000000\n        /* \"#utility.yul\":733:734   */\n      0x00\n        /* \"#utility.yul\":726:814   */\n      mstore\n        /* \"#utility.yul\":833:837   */\n      0x41\n        /* \"#utility.yul\":830:831   */\n      0x04\n        /* \"#utility.yul\":823:838   */\n      mstore\n        /* \"#utility.yul\":857:861   */\n      0x24\n        /* \"#utility.yul\":854:855   */\n      0x00\n        /* \"#utility.yul\":847:862   */\n      revert\n        /* \"#utility.yul\":874:1155   */\n    tag_55:\n        /* \"#utility.yul\":957:984   */\n      tag_100\n        /* \"#utility.yul\":979:983   */\n      dup3\n        /* \"#utility.yul\":957:984   */\n      tag_53\n      jump\t// in\n    tag_100:\n        /* \"#utility.yul\":949:955   */\n      dup2\n        /* \"#utility.yul\":945:985   */\n      add\n        /* \"#utility.yul\":1087:1093   */\n      dup2\n        /* \"#utility.yul\":1075:1085   */\n      dup2\n        /* \"#utility.yul\":1072:1094   */\n      lt\n        /* \"#utility.yul\":1051:1069   */\n      0xffffffffffffffff\n        /* \"#utility.yul\":1039:1049   */\n      dup3\n        /* \"#utility.yul\":1036:1070   */\n      gt\n        /* \"#utility.yul\":1033:1095   */\n      or\n        /* \"#utility.yul\":1030:1118   */\n      iszero\n      tag_101\n      jumpi\n        /* \"#utility.yul\":1098:1116   */\n      tag_102\n      tag_54\n      jump\t// in\n    tag_102:\n        /* \"#utility.yul\":1030:1118   */\n    tag_101:\n        /* \"#utility.yul\":1138:1148   */\n      dup1\n        /* \"#utility.yul\":1134:1136   */\n      0x40\n        /* \"#utility.yul\":1127:1149   */\n      mstore\n        /* \"#utility.yul\":917:1155   */\n      pop\n        /* \"#utility.yul\":874:1155   */\n      pop\n      pop\n      jump\t// out\n        /* \"#utility.yul\":1161:1290   */\n    tag_56:\n        /* \"#utility.yul\":1195:1201   */\n      0x00\n        /* \"#utility.yul\":1222:1242   */\n      tag_104\n      tag_48\n      jump\t// in\n    tag_104:\n        /* \"#utility.yul\":1212:1242   */\n      swap1\n      pop\n        /* \"#utility.yul\":1251:1284   */\n      tag_105\n        /* \"#utility.yul\":1279:1283   */\n      dup3\n        /* \"#utility.yul\":1271:1277   */\n      dup3\n        /* \"#utility.yul\":1251:1284   */\n      tag_55\n      jump\t// in\n    tag_105:\n        /* \"#utility.yul\":1161:1290   */\n      swap2\n      swap1\n      pop\n      jump\t// out\n        /* \"#utility.yul\":1296:1604   */\n    tag_57:\n        /* \"#utility.yul\":1358:1362   */\n      0x00\n        /* \"#utility.yul\":1448:1466   */\n      0xffffffffffffffff\n        /* \"#utility.yul\":1440:1446   */\n      dup3\n        /* \"#utility.yul\":1437:1467   */\n      gt\n        /* \"#utility.yul\":1434:1490   */\n      iszero\n      tag_107\n      jumpi\n        /* \"#utility.yul\":1470:1488   */\n      tag_108\n      tag_54\n      jump\t// in\n    tag_108:\n        /* \"#utility.yul\":1434:1490   */\n    tag_107:\n        /* \"#utility.yul\":1508:1537   */\n      tag_109\n        /* \"#utility.yul\":1530:1536   */\n      dup3\n        /* \"#utility.yul\":1508:1537   */\n      tag_53\n      jump\t// in\n    tag_109:\n        /* \"#utility.yul\":1500:1537   */\n      swap1\n      pop\n        /* \"#utility.yul\":1592:1596   */\n      0x20\n        /* \"#utility.yul\":1586:1590   */\n      dup2\n        /* \"#utility.yul\":1582:1597   */\n      add\n        /* \"#utility.yul\":1574:1597   */\n      swap1\n      pop\n        /* \"#utility.yul\":1296:1604   */\n      swap2\n      swap1\n      pop\n      jump\t// out\n        /* \"#utility.yul\":1610:1756   */\n    tag_58:\n        /* \"#utility.yul\":1707:1713   */\n      dup3\n        /* \"#utility.yul\":1702:1705   */\n      dup2\n        /* \"#utility.yul\":1697:1700   */\n      dup4\n        /* \"#utility.yul\":1684:1714   */\n      calldatacopy\n        /* \"#utility.yul\":1748:1749   */\n      0x00\n        /* \"#utility.yul\":1739:1745   */\n      dup4\n        /* \"#utility.yul\":1734:1737   */\n      dup4\n        /* \"#utility.yul\":1730:1746   */\n      add\n        /* \"#utility.yul\":1723:1750   */\n      mstore\n        /* \"#utility.yul\":1610:1756   */\n      pop\n      pop\n      pop\n      jump\t// out\n        /* \"#utility.yul\":1762:2187   */\n    tag_59:\n        /* \"#utility.yul\":1840:1845   */\n      0x00\n        /* \"#utility.yul\":1865:1931   */\n      tag_112\n        /* \"#utility.yul\":1881:1930   */\n      tag_113\n        /* \"#utility.yul\":1923:1929   */\n      dup5\n        /* \"#utility.yul\":1881:1930   */\n      tag_57\n      jump\t// in\n    tag_113:\n        /* \"#utility.yul\":1865:1931   */\n      tag_56\n      jump\t// in\n    tag_112:\n        /* \"#utility.yul\":1856:1931   */\n      swap1\n      pop\n        /* \"#utility.yul\":1954:1960   */\n      dup3\n        /* \"#utility.yul\":1947:1952   */\n      dup2\n        /* \"#utility.yul\":1940:1961   */\n      mstore\n        /* \"#utility.yul\":1992:1996   */\n      0x20\n        /* \"#utility.yul\":1985:1990   */\n      dup2\n        /* \"#utility.yul\":1981:1997   */\n      add\n        /* \"#utility.yul\":2030:2033   */\n      dup5\n        /* \"#utility.yul\":2021:2027   */\n      dup5\n        /* \"#utility.yul\":2016:2019   */\n      dup5\n        /* \"#utility.yul\":2012:2028   */\n      add\n        /* \"#utility.yul\":2009:2034   */\n      gt\n        /* \"#utility.yul\":2006:2118   */\n      iszero\n      tag_114\n      jumpi\n        /* \"#utility.yul\":2037:2116   */\n      tag_115\n      tag_52\n      jump\t// in\n    tag_115:\n        /* \"#utility.yul\":2006:2118   */\n    tag_114:\n        /* \"#utility.yul\":2127:2181   */\n      tag_116\n        /* \"#utility.yul\":2174:2180   */\n      dup5\n        /* \"#utility.yul\":2169:2172   */\n      dup3\n        /* \"#utility.yul\":2164:2167   */\n      dup6\n        /* \"#utility.yul\":2127:2181   */\n      tag_58\n      jump\t// in\n    tag_116:\n        /* \"#utility.yul\":1846:2187   */\n      pop\n        /* \"#utility.yul\":1762:2187   */\n      swap4\n      swap3\n      pop\n      pop\n      pop\n      jump\t// out\n        /* \"#utility.yul\":2207:2547   */\n    tag_60:\n        /* \"#utility.yul\":2263:2268   */\n      0x00\n        /* \"#utility.yul\":2312:2315   */\n      dup3\n        /* \"#utility.yul\":2305:2309   */\n      0x1f\n        /* \"#utility.yul\":2297:2303   */\n      dup4\n        /* \"#utility.yul\":2293:2310   */\n      add\n        /* \"#utility.yul\":2289:2316   */\n      slt\n        /* \"#utility.yul\":2279:2401   */\n      tag_118\n      jumpi\n        /* \"#utility.yul\":2320:2399   */\n      tag_119\n      tag_51\n      jump\t// in\n    tag_119:\n        /* \"#utility.yul\":2279:2401   */\n    tag_118:\n        /* \"#utility.yul\":2437:2443   */\n      dup2\n        /* \"#utility.yul\":2424:2444   */\n      calldataload\n        /* \"#utility.yul\":2462:2541   */\n      tag_120\n        /* \"#utility.yul\":2537:2540   */\n      dup5\n        /* \"#utility.yul\":2529:2535   */\n      dup3\n        /* \"#utility.yul\":2522:2526   */\n      0x20\n        /* \"#utility.yul\":2514:2520   */\n      dup7\n        /* \"#utility.yul\":2510:2527   */\n      add\n        /* \"#utility.yul\":2462:2541   */\n      tag_59\n      jump\t// in\n    tag_120:\n        /* \"#utility.yul\":2453:2541   */\n      swap2\n      pop\n        /* \"#utility.yul\":2269:2547   */\n      pop\n        /* \"#utility.yul\":2207:2547   */\n      swap3\n      swap2\n      pop\n      pop\n      jump\t// out\n        /* \"#utility.yul\":2553:3062   */\n    tag_7:\n        /* \"#utility.yul\":2622:2628   */\n      0x00\n        /* \"#utility.yul\":2671:2673   */\n      0x20\n        /* \"#utility.yul\":2659:2668   */\n      dup3\n        /* \"#utility.yul\":2650:2657   */\n      dup5\n        /* \"#utility.yul\":2646:2669   */\n      sub\n        /* \"#utility.yul\":2642:2674   */\n      slt\n        /* \"#utility.yul\":2639:2758   */\n      iszero\n      tag_122\n      jumpi\n        /* \"#utility.yul\":2677:2756   */\n      tag_123\n      tag_49\n      jump\t// in\n    tag_123:\n        /* \"#utility.yul\":2639:2758   */\n    tag_122:\n        /* \"#utility.yul\":2825:2826   */\n      0x00\n        /* \"#utility.yul\":2814:2823   */\n      dup3\n        /* \"#utility.yul\":2810:2827   */\n      add\n        /* \"#utility.yul\":2797:2828   */\n      calldataload\n        /* \"#utility.yul\":2855:2873   */\n      0xffffffffffffffff\n        /* \"#utility.yul\":2847:2853   */\n      dup2\n        /* \"#utility.yul\":2844:2874   */\n      gt\n        /* \"#utility.yul\":2841:2958   */\n      iszero\n      tag_124\n      jumpi\n        /* \"#utility.yul\":2877:2956   */\n      tag_125\n      tag_50\n      jump\t// in\n    tag_125:\n        /* \"#utility.yul\":2841:2958   */\n    tag_124:\n        /* \"#utility.yul\":2982:3045   */\n      tag_126\n        /* \"#utility.yul\":3037:3044   */\n      dup5\n        /* \"#utility.yul\":3028:3034   */\n      dup3\n        /* \"#utility.yul\":3017:3026   */\n      dup6\n        /* \"#utility.yul\":3013:3035   */\n      add\n        /* \"#utility.yul\":2982:3045   */\n      tag_60\n      jump\t// in\n    tag_126:\n        /* \"#utility.yul\":2972:3045   */\n      swap2\n      pop\n        /* \"#utility.yul\":2768:3055   */\n      pop\n        /* \"#utility.yul\":2553:3062   */\n      swap3\n      swap2\n      pop\n      pop\n      jump\t// out\n        /* \"#utility.yul\":3068:3167   */\n    tag_61:\n        /* \"#utility.yul\":3120:3126   */\n      0x00\n        /* \"#utility.yul\":3154:3159   */\n      dup2\n        /* \"#utility.yul\":3148:3160   */\n      mload\n        /* \"#utility.yul\":3138:3160   */\n      swap1\n      pop\n        /* \"#utility.yul\":3068:3167   */\n      swap2\n      swap1\n      pop\n      jump\t// out\n        /* \"#utility.yul\":3173:3342   */\n    tag_62:\n        /* \"#utility.yul\":3257:3268   */\n      0x00\n        /* \"#utility.yul\":3291:3297   */\n      dup3\n        /* \"#utility.yul\":3286:3289   */\n      dup3\n        /* \"#utility.yul\":3279:3298   */\n      mstore\n        /* \"#utility.yul\":3331:3335   */\n      0x20\n        /* \"#utility.yul\":3326:3329   */\n      dup3\n        /* \"#utility.yul\":3322:3336   */\n      add\n        /* \"#utility.yul\":3307:3336   */\n      swap1\n      pop\n        /* \"#utility.yul\":3173:3342   */\n      swap3\n      swap2\n      pop\n      pop\n      jump\t// out\n        /* \"#utility.yul\":3348:3594   */\n    tag_63:\n        /* \"#utility.yul\":3429:3430   */\n      0x00\n        /* \"#utility.yul\":3439:3552   */\n    tag_130:\n        /* \"#utility.yul\":3453:3459   */\n      dup4\n        /* \"#utility.yul\":3450:3451   */\n      dup2\n        /* \"#utility.yul\":3447:3460   */\n      lt\n        /* \"#utility.yul\":3439:3552   */\n      iszero\n      tag_132\n      jumpi\n        /* \"#utility.yul\":3538:3539   */\n      dup1\n        /* \"#utility.yul\":3533:3536   */\n      dup3\n        /* \"#utility.yul\":3529:3540   */\n      add\n        /* \"#utility.yul\":3523:3541   */\n      mload\n        /* \"#utility.yul\":3519:3520   */\n      dup2\n        /* \"#utility.yul\":3514:3517   */\n      dup5\n        /* \"#utility.yul\":3510:3521   */\n      add\n        /* \"#utility.yul\":3503:3542   */\n      mstore\n        /* \"#utility.yul\":3475:3477   */\n      0x20\n        /* \"#utility.yul\":3472:3473   */\n      dup2\n        /* \"#utility.yul\":3468:3478   */\n      add\n        /* \"#utility.yul\":3463:3478   */\n      swap1\n      pop\n        /* \"#utility.yul\":3439:3552   */\n      jump(tag_130)\n    tag_132:\n        /* \"#utility.yul\":3586:3587   */\n      0x00\n        /* \"#utility.yul\":3577:3583   */\n      dup5\n        /* \"#utility.yul\":3572:3575   */\n      dup5\n        /* \"#utility.yul\":3568:3584   */\n      add\n        /* \"#utility.yul\":3561:3588   */\n      mstore\n        /* \"#utility.yul\":3410:3594   */\n      pop\n        /* \"#utility.yul\":3348:3594   */\n      pop\n      pop\n      pop\n      jump\t// out\n        /* \"#utility.yul\":3600:3977   */\n    tag_64:\n        /* \"#utility.yul\":3688:3691   */\n      0x00\n        /* \"#utility.yul\":3716:3755   */\n      tag_134\n        /* \"#utility.yul\":3749:3754   */\n      dup3\n        /* \"#utility.yul\":3716:3755   */\n      tag_61\n      jump\t// in\n    tag_134:\n        /* \"#utility.yul\":3771:3842   */\n      tag_135\n        /* \"#utility.yul\":3835:3841   */\n      dup2\n        /* \"#utility.yul\":3830:3833   */\n      dup6\n        /* \"#utility.yul\":3771:3842   */\n      tag_62\n      jump\t// in\n    tag_135:\n        /* \"#utility.yul\":3764:3842   */\n      swap4\n      pop\n        /* \"#utility.yul\":3851:3916   */\n      tag_136\n        /* \"#utility.yul\":3909:3915   */\n      dup2\n        /* \"#utility.yul\":3904:3907   */\n      dup6\n        /* \"#utility.yul\":3897:3901   */\n      0x20\n        /* \"#utility.yul\":3890:3895   */\n      dup7\n        /* \"#utility.yul\":3886:3902   */\n      add\n        /* \"#utility.yul\":3851:3916   */\n      tag_63\n      jump\t// in\n    tag_136:\n        /* \"#utility.yul\":3941:3970   */\n      tag_137\n        /* \"#utility.yul\":3963:3969   */\n      dup2\n        /* \"#utility.yul\":3941:3970   */\n      tag_53\n      jump\t// in\n    tag_137:\n        /* \"#utility.yul\":3936:3939   */\n      dup5\n        /* \"#utility.yul\":3932:3971   */\n      add\n        /* \"#utility.yul\":3925:3971   */\n      swap2\n      pop\n        /* \"#utility.yul\":3692:3977   */\n      pop\n        /* \"#utility.yul\":3600:3977   */\n      swap3\n      swap2\n      pop\n      pop\n      jump\t// out\n        /* \"#utility.yul\":3983:4060   */\n    tag_65:\n        /* \"#utility.yul\":4020:4027   */\n      0x00\n        /* \"#utility.yul\":4049:4054   */\n      dup2\n        /* \"#utility.yul\":4038:4054   */\n      swap1\n      pop\n        /* \"#utility.yul\":3983:4060   */\n      swap2\n      swap1\n      pop\n      jump\t// out\n        /* \"#utility.yul\":4066:4184   */\n    tag_66:\n        /* \"#utility.yul\":4153:4177   */\n      tag_140\n        /* \"#utility.yul\":4171:4176   */\n      dup2\n        /* \"#utility.yul\":4153:4177   */\n      tag_65\n      jump\t// in\n    tag_140:\n        /* \"#utility.yul\":4148:4151   */\n      dup3\n        /* \"#utility.yul\":4141:4178   */\n      mstore\n        /* \"#utility.yul\":4066:4184   */\n      pop\n      pop\n      jump\t// out\n        /* \"#utility.yul\":4190:5016   */\n    tag_10:\n        /* \"#utility.yul\":4427:4431   */\n      0x00\n        /* \"#utility.yul\":4465:4468   */\n      0x80\n        /* \"#utility.yul\":4454:4463   */\n      dup3\n        /* \"#utility.yul\":4450:4469   */\n      add\n        /* \"#utility.yul\":4442:4469   */\n      swap1\n      pop\n        /* \"#utility.yul\":4515:4524   */\n      dup2\n        /* \"#utility.yul\":4509:4513   */\n      dup2\n        /* \"#utility.yul\":4505:4525   */\n      sub\n        /* \"#utility.yul\":4501:4502   */\n      0x00\n        /* \"#utility.yul\":4490:4499   */\n      dup4\n        /* \"#utility.yul\":4486:4503   */\n      add\n        /* \"#utility.yul\":4479:4526   */\n      mstore\n        /* \"#utility.yul\":4543:4621   */\n      tag_142\n        /* \"#utility.yul\":4616:4620   */\n      dup2\n        /* \"#utility.yul\":4607:4613   */\n      dup8\n        /* \"#utility.yul\":4543:4621   */\n      tag_64\n      jump\t// in\n    tag_142:\n        /* \"#utility.yul\":4535:4621   */\n      swap1\n      pop\n        /* \"#utility.yul\":4668:4677   */\n      dup2\n        /* \"#utility.yul\":4662:4666   */\n      dup2\n        /* \"#utility.yul\":4658:4678   */\n      sub\n        /* \"#utility.yul\":4653:4655   */\n      0x20\n        /* \"#utility.yul\":4642:4651   */\n      dup4\n        /* \"#utility.yul\":4638:4656   */\n      add\n        /* \"#utility.yul\":4631:4679   */\n      mstore\n        /* \"#utility.yul\":4696:4774   */\n      tag_143\n        /* \"#utility.yul\":4769:4773   */\n      dup2\n        /* \"#utility.yul\":4760:4766   */\n      dup7\n        /* \"#utility.yul\":4696:4774   */\n      tag_64\n      jump\t// in\n    tag_143:\n        /* \"#utility.yul\":4688:4774   */\n      swap1\n      pop\n        /* \"#utility.yul\":4784:4856   */\n      tag_144\n        /* \"#utility.yul\":4852:4854   */\n      0x40\n        /* \"#utility.yul\":4841:4850   */\n      dup4\n        /* \"#utility.yul\":4837:4855   */\n      add\n        /* \"#utility.yul\":4828:4834   */\n      dup6\n        /* \"#utility.yul\":4784:4856   */\n      tag_66\n      jump\t// in\n    tag_144:\n        /* \"#utility.yul\":4903:4912   */\n      dup2\n        /* \"#utility.yul\":4897:4901   */\n      dup2\n        /* \"#utility.yul\":4893:4913   */\n      sub\n        /* \"#utility.yul\":4888:4890   */\n      0x60\n        /* \"#utility.yul\":4877:4886   */\n      dup4\n        /* \"#utility.yul\":4873:4891   */\n      add\n        /* \"#utility.yul\":4866:4914   */\n      mstore\n        /* \"#utility.yul\":4931:5009   */\n      tag_145\n        /* \"#utility.yul\":5004:5008   */\n      dup2\n        /* \"#utility.yul\":4995:5001   */\n      dup5\n        /* \"#utility.yul\":4931:5009   */\n      tag_64\n      jump\t// in\n    tag_145:\n        /* \"#utility.yul\":4923:5009   */\n      swap1\n      pop\n        /* \"#utility.yul\":4190:5016   */\n      swap6\n      swap5\n      pop\n      pop\n      pop\n      pop\n      pop\n      jump\t// out\n        /* \"#utility.yul\":5022:5144   */\n    tag_67:\n        /* \"#utility.yul\":5095:5119   */\n      tag_147\n        /* \"#utility.yul\":5113:5118   */\n      dup2\n        /* \"#utility.yul\":5095:5119   */\n      tag_65\n      jump\t// in\n    tag_147:\n        /* \"#utility.yul\":5088:5093   */\n      dup2\n        /* \"#utility.yul\":5085:5120   */\n      eq\n        /* \"#utility.yul\":5075:5138   */\n      tag_148\n      jumpi\n        /* \"#utility.yul\":5134:5135   */\n      0x00\n        /* \"#utility.yul\":5131:5132   */\n      dup1\n        /* \"#utility.yul\":5124:5136   */\n      revert\n        /* \"#utility.yul\":5075:5138   */\n    tag_148:\n        /* \"#utility.yul\":5022:5144   */\n      pop\n      jump\t// out\n        /* \"#utility.yul\":5150:5289   */\n    tag_68:\n        /* \"#utility.yul\":5196:5201   */\n      0x00\n        /* \"#utility.yul\":5234:5240   */\n      dup2\n        /* \"#utility.yul\":5221:5241   */\n      calldataload\n        /* \"#utility.yul\":5212:5241   */\n      swap1\n      pop\n        /* \"#utility.yul\":5250:5283   */\n      tag_150\n        /* \"#utility.yul\":5277:5282   */\n      dup2\n        /* \"#utility.yul\":5250:5283   */\n      tag_67\n      jump\t// in\n    tag_150:\n        /* \"#utility.yul\":5150:5289   */\n      swap3\n      swap2\n      pop\n      pop\n      jump\t// out\n        /* \"#utility.yul\":5295:6600   */\n    tag_13:\n        /* \"#utility.yul\":5411:5417   */\n      0x00\n        /* \"#utility.yul\":5419:5425   */\n      dup1\n        /* \"#utility.yul\":5427:5433   */\n      0x00\n        /* \"#utility.yul\":5435:5441   */\n      dup1\n        /* \"#utility.yul\":5484:5487   */\n      0x80\n        /* \"#utility.yul\":5472:5481   */\n      dup6\n        /* \"#utility.yul\":5463:5470   */\n      dup8\n        /* \"#utility.yul\":5459:5482   */\n      sub\n        /* \"#utility.yul\":5455:5488   */\n      slt\n        /* \"#utility.yul\":5452:5572   */\n      iszero\n      tag_152\n      jumpi\n        /* \"#utility.yul\":5491:5570   */\n      tag_153\n      tag_49\n      jump\t// in\n    tag_153:\n        /* \"#utility.yul\":5452:5572   */\n    tag_152:\n        /* \"#utility.yul\":5639:5640   */\n      0x00\n        /* \"#utility.yul\":5628:5637   */\n      dup6\n        /* \"#utility.yul\":5624:5641   */\n      add\n        /* \"#utility.yul\":5611:5642   */\n      calldataload\n        /* \"#utility.yul\":5669:5687   */\n      0xffffffffffffffff\n        /* \"#utility.yul\":5661:5667   */\n      dup2\n        /* \"#utility.yul\":5658:5688   */\n      gt\n        /* \"#utility.yul\":5655:5772   */\n      iszero\n      tag_154\n      jumpi\n        /* \"#utility.yul\":5691:5770   */\n      tag_155\n      tag_50\n      jump\t// in\n    tag_155:\n        /* \"#utility.yul\":5655:5772   */\n    tag_154:\n        /* \"#utility.yul\":5796:5859   */\n      tag_156\n        /* \"#utility.yul\":5851:5858   */\n      dup8\n        /* \"#utility.yul\":5842:5848   */\n      dup3\n        /* \"#utility.yul\":5831:5840   */\n      dup9\n        /* \"#utility.yul\":5827:5849   */\n      add\n        /* \"#utility.yul\":5796:5859   */\n      tag_60\n      jump\t// in\n    tag_156:\n        /* \"#utility.yul\":5786:5859   */\n      swap5\n      pop\n        /* \"#utility.yul\":5582:5869   */\n      pop\n        /* \"#utility.yul\":5936:5938   */\n      0x20\n        /* \"#utility.yul\":5925:5934   */\n      dup6\n        /* \"#utility.yul\":5921:5939   */\n      add\n        /* \"#utility.yul\":5908:5940   */\n      calldataload\n        /* \"#utility.yul\":5967:5985   */\n      0xffffffffffffffff\n        /* \"#utility.yul\":5959:5965   */\n      dup2\n        /* \"#utility.yul\":5956:5986   */\n      gt\n        /* \"#utility.yul\":5953:6070   */\n      iszero\n      tag_157\n      jumpi\n        /* \"#utility.yul\":5989:6068   */\n      tag_158\n      tag_50\n      jump\t// in\n    tag_158:\n        /* \"#utility.yul\":5953:6070   */\n    tag_157:\n        /* \"#utility.yul\":6094:6157   */\n      tag_159\n        /* \"#utility.yul\":6149:6156   */\n      dup8\n        /* \"#utility.yul\":6140:6146   */\n      dup3\n        /* \"#utility.yul\":6129:6138   */\n      dup9\n        /* \"#utility.yul\":6125:6147   */\n      add\n        /* \"#utility.yul\":6094:6157   */\n      tag_60\n      jump\t// in\n    tag_159:\n        /* \"#utility.yul\":6084:6157   */\n      swap4\n      pop\n        /* \"#utility.yul\":5879:6167   */\n      pop\n        /* \"#utility.yul\":6206:6208   */\n      0x40\n        /* \"#utility.yul\":6232:6285   */\n      tag_160\n        /* \"#utility.yul\":6277:6284   */\n      dup8\n        /* \"#utility.yul\":6268:6274   */\n      dup3\n        /* \"#utility.yul\":6257:6266   */\n      dup9\n        /* \"#utility.yul\":6253:6275   */\n      add\n        /* \"#utility.yul\":6232:6285   */\n      tag_68\n      jump\t// in\n    tag_160:\n        /* \"#utility.yul\":6222:6285   */\n      swap3\n      pop\n        /* \"#utility.yul\":6177:6295   */\n      pop\n        /* \"#utility.yul\":6362:6364   */\n      0x60\n        /* \"#utility.yul\":6351:6360   */\n      dup6\n        /* \"#utility.yul\":6347:6365   */\n      add\n        /* \"#utility.yul\":6334:6366   */\n      calldataload\n        /* \"#utility.yul\":6393:6411   */\n      0xffffffffffffffff\n        /* \"#utility.yul\":6385:6391   */\n      dup2\n        /* \"#utility.yul\":6382:6412   */\n      gt\n        /* \"#utility.yul\":6379:6496   */\n      iszero\n      tag_161\n      jumpi\n        /* \"#utility.yul\":6415:6494   */\n      tag_162\n      tag_50\n      jump\t// in\n    tag_162:\n        /* \"#utility.yul\":6379:6496   */\n    tag_161:\n        /* \"#utility.yul\":6520:6583   */\n      tag_163\n        /* \"#utility.yul\":6575:6582   */\n      dup8\n        /* \"#utility.yul\":6566:6572   */\n      dup3\n        /* \"#utility.yul\":6555:6564   */\n      dup9\n        /* \"#utility.yul\":6551:6573   */\n      add\n        /* \"#utility.yul\":6520:6583   */\n      tag_60\n      jump\t// in\n    tag_163:\n        /* \"#utility.yul\":6510:6583   */\n      swap2\n      pop\n        /* \"#utility.yul\":6305:6593   */\n      pop\n        /* \"#utility.yul\":5295:6600   */\n      swap3\n      swap6\n      swap2\n      swap5\n      pop\n      swap3\n      pop\n      jump\t// out\n        /* \"#utility.yul\":6606:6786   */\n    tag_69:\n        /* \"#utility.yul\":6654:6731   */\n      0x4e487b7100000000000000000000000000000000000000000000000000000000\n        /* \"#utility.yul\":6651:6652   */\n      0x00\n        /* \"#utility.yul\":6644:6732   */\n      mstore\n        /* \"#utility.yul\":6751:6755   */\n      0x22\n        /* \"#utility.yul\":6748:6749   */\n      0x04\n        /* \"#utility.yul\":6741:6756   */\n      mstore\n        /* \"#utility.yul\":6775:6779   */\n      0x24\n        /* \"#utility.yul\":6772:6773   */\n      0x00\n        /* \"#utility.yul\":6765:6780   */\n      revert\n        /* \"#utility.yul\":6792:7112   */\n    tag_16:\n        /* \"#utility.yul\":6836:6842   */\n      0x00\n        /* \"#utility.yul\":6873:6874   */\n      0x02\n        /* \"#utility.yul\":6867:6871   */\n      dup3\n        /* \"#utility.yul\":6863:6875   */\n      div\n        /* \"#utility.yul\":6853:6875   */\n      swap1\n      pop\n        /* \"#utility.yul\":6920:6921   */\n      0x01\n        /* \"#utility.yul\":6914:6918   */\n      dup3\n        /* \"#utility.yul\":6910:6922   */\n      and\n        /* \"#utility.yul\":6941:6959   */\n      dup1\n        /* \"#utility.yul\":6931:7012   */\n      tag_166\n      jumpi\n        /* \"#utility.yul\":6997:7001   */\n      0x7f\n        /* \"#utility.yul\":6989:6995   */\n      dup3\n        /* \"#utility.yul\":6985:7002   */\n      and\n        /* \"#utility.yul\":6975:7002   */\n      swap2\n      pop\n        /* \"#utility.yul\":6931:7012   */\n    tag_166:\n        /* \"#utility.yul\":7059:7061   */\n      0x20\n        /* \"#utility.yul\":7051:7057   */\n      dup3\n        /* \"#utility.yul\":7048:7062   */\n      lt\n        /* \"#utility.yul\":7028:7046   */\n      dup2\n        /* \"#utility.yul\":7025:7063   */\n      sub\n        /* \"#utility.yul\":7022:7106   */\n      tag_167\n      jumpi\n        /* \"#utility.yul\":7078:7096   */\n      tag_168\n      tag_69\n      jump\t// in\n    tag_168:\n        /* \"#utility.yul\":7022:7106   */\n    tag_167:\n        /* \"#utility.yul\":6843:7112   */\n      pop\n        /* \"#utility.yul\":6792:7112   */\n      swap2\n      swap1\n      pop\n      jump\t// out\n        /* \"#utility.yul\":7118:7288   */\n    tag_70:\n        /* \"#utility.yul\":7258:7280   */\n      0x4953424e2063616e6e6f7420626520656d707479000000000000000000000000\n        /* \"#utility.yul\":7254:7255   */\n      0x00\n        /* \"#utility.yul\":7246:7252   */\n      dup3\n        /* \"#utility.yul\":7242:7256   */\n      add\n        /* \"#utility.yul\":7235:7281   */\n      mstore\n        /* \"#utility.yul\":7118:7288   */\n      pop\n      jump\t// out\n        /* \"#utility.yul\":7294:7660   */\n    tag_71:\n        /* \"#utility.yul\":7436:7439   */\n      0x00\n        /* \"#utility.yul\":7457:7524   */\n      tag_171\n        /* \"#utility.yul\":7521:7523   */\n      0x14\n        /* \"#utility.yul\":7516:7519   */\n      dup4\n        /* \"#utility.yul\":7457:7524   */\n      tag_62\n      jump\t// in\n    tag_171:\n        /* \"#utility.yul\":7450:7524   */\n      swap2\n      pop\n        /* \"#utility.yul\":7533:7626   */\n      tag_172\n        /* \"#utility.yul\":7622:7625   */\n      dup3\n        /* \"#utility.yul\":7533:7626   */\n      tag_70\n      jump\t// in\n    tag_172:\n        /* \"#utility.yul\":7651:7653   */\n      0x20\n        /* \"#utility.yul\":7646:7649   */\n      dup3\n        /* \"#utility.yul\":7642:7654   */\n      add\n        /* \"#utility.yul\":7635:7654   */\n      swap1\n      pop\n        /* \"#utility.yul\":7294:7660   */\n      swap2\n      swap1\n      pop\n      jump\t// out\n        /* \"#utility.yul\":7666:8085   */\n    tag_34:\n        /* \"#utility.yul\":7832:7836   */\n      0x00\n        /* \"#utility.yul\":7870:7872   */\n      0x20\n        /* \"#utility.yul\":7859:7868   */\n      dup3\n        /* \"#utility.yul\":7855:7873   */\n      add\n        /* \"#utility.yul\":7847:7873   */\n      swap1\n      pop\n        /* \"#utility.yul\":7919:7928   */\n      dup2\n        /* \"#utility.yul\":7913:7917   */\n      dup2\n        /* \"#utility.yul\":7909:7929   */\n      sub\n        /* \"#utility.yul\":7905:7906   */\n      0x00\n        /* \"#utility.yul\":7894:7903   */\n      dup4\n        /* \"#utility.yul\":7890:7907   */\n      add\n        /* \"#utility.yul\":7883:7930   */\n      mstore\n        /* \"#utility.yul\":7947:8078   */\n      tag_174\n        /* \"#utility.yul\":8073:8077   */\n      dup2\n        /* \"#utility.yul\":7947:8078   */\n      tag_71\n      jump\t// in\n    tag_174:\n        /* \"#utility.yul\":7939:8078   */\n      swap1\n      pop\n        /* \"#utility.yul\":7666:8085   */\n      swap2\n      swap1\n      pop\n      jump\t// out\n        /* \"#utility.yul\":8091:8239   */\n    tag_72:\n        /* \"#utility.yul\":8193:8204   */\n      0x00\n        /* \"#utility.yul\":8230:8233   */\n      dup2\n        /* \"#utility.yul\":8215:8233   */\n      swap1\n      pop\n        /* \"#utility.yul\":8091:8239   */\n      swap3\n      swap2\n      pop\n      pop\n      jump\t// out\n        /* \"#utility.yul\":8245:8635   */\n    tag_73:\n        /* \"#utility.yul\":8351:8354   */\n      0x00\n        /* \"#utility.yul\":8379:8418   */\n      tag_177\n        /* \"#utility.yul\":8412:8417   */\n      dup3\n        /* \"#utility.yul\":8379:8418   */\n      tag_61\n      jump\t// in\n    tag_177:\n        /* \"#utility.yul\":8434:8523   */\n      tag_178\n        /* \"#utility.yul\":8516:8522   */\n      dup2\n        /* \"#utility.yul\":8511:8514   */\n      dup6\n        /* \"#utility.yul\":8434:8523   */\n      tag_72\n      jump\t// in\n    tag_178:\n        /* \"#utility.yul\":8427:8523   */\n      swap4\n      pop\n        /* \"#utility.yul\":8532:8597   */\n      tag_179\n        /* \"#utility.yul\":8590:8596   */\n      dup2\n        /* \"#utility.yul\":8585:8588   */\n      dup6\n        /* \"#utility.yul\":8578:8582   */\n      0x20\n        /* \"#utility.yul\":8571:8576   */\n      dup7\n        /* \"#utility.yul\":8567:8583   */\n      add\n        /* \"#utility.yul\":8532:8597   */\n      tag_63\n      jump\t// in\n    tag_179:\n        /* \"#utility.yul\":8622:8628   */\n      dup1\n        /* \"#utility.yul\":8617:8620   */\n      dup5\n        /* \"#utility.yul\":8613:8629   */\n      add\n        /* \"#utility.yul\":8606:8629   */\n      swap2\n      pop\n        /* \"#utility.yul\":8355:8635   */\n      pop\n        /* \"#utility.yul\":8245:8635   */\n      swap3\n      swap2\n      pop\n      pop\n      jump\t// out\n        /* \"#utility.yul\":8641:8916   */\n    tag_36:\n        /* \"#utility.yul\":8773:8776   */\n      0x00\n        /* \"#utility.yul\":8795:8890   */\n      tag_181\n        /* \"#utility.yul\":8886:8889   */\n      dup3\n        /* \"#utility.yul\":8877:8883   */\n      dup5\n        /* \"#utility.yul\":8795:8890   */\n      tag_73\n      jump\t// in\n    tag_181:\n        /* \"#utility.yul\":8788:8890   */\n      swap2\n      pop\n        /* \"#utility.yul\":8907:8910   */\n      dup2\n        /* \"#utility.yul\":8900:8910   */\n      swap1\n      pop\n        /* \"#utility.yul\":8641:8916   */\n      swap3\n      swap2\n      pop\n      pop\n      jump\t// out\n        /* \"#utility.yul\":8922:9143   */\n    tag_74:\n        /* \"#utility.yul\":9062:9096   */\n      0x426f6f6b20776974682074686973204953424e20616c72656164792065786973\n        /* \"#utility.yul\":9058:9059   */\n      0x00\n        /* \"#utility.yul\":9050:9056   */\n      dup3\n        /* \"#utility.yul\":9046:9060   */\n      add\n        /* \"#utility.yul\":9039:9097   */\n      mstore\n        /* \"#utility.yul\":9131:9135   */\n      0x7473000000000000000000000000000000000000000000000000000000000000\n        /* \"#utility.yul\":9126:9128   */\n      0x20\n        /* \"#utility.yul\":9118:9124   */\n      dup3\n        /* \"#utility.yul\":9114:9129   */\n      add\n        /* \"#utility.yul\":9107:9136   */\n      mstore\n        /* \"#utility.yul\":8922:9143   */\n      pop\n      jump\t// out\n        /* \"#utility.yul\":9149:9515   */\n    tag_75:\n        /* \"#utility.yul\":9291:9294   */\n      0x00\n        /* \"#utility.yul\":9312:9379   */\n      tag_184\n        /* \"#utility.yul\":9376:9378   */\n      0x22\n        /* \"#utility.yul\":9371:9374   */\n      dup4\n        /* \"#utility.yul\":9312:9379   */\n      tag_62\n      jump\t// in\n    tag_184:\n        /* \"#utility.yul\":9305:9379   */\n      swap2\n      pop\n        /* \"#utility.yul\":9388:9481   */\n      tag_185\n        /* \"#utility.yul\":9477:9480   */\n      dup3\n        /* \"#utility.yul\":9388:9481   */\n      tag_74\n      jump\t// in\n    tag_185:\n        /* \"#utility.yul\":9506:9508   */\n      0x40\n        /* \"#utility.yul\":9501:9504   */\n      dup3\n        /* \"#utility.yul\":9497:9509   */\n      add\n        /* \"#utility.yul\":9490:9509   */\n      swap1\n      pop\n        /* \"#utility.yul\":9149:9515   */\n      swap2\n      swap1\n      pop\n      jump\t// out\n        /* \"#utility.yul\":9521:9940   */\n    tag_40:\n        /* \"#utility.yul\":9687:9691   */\n      0x00\n        /* \"#utility.yul\":9725:9727   */\n      0x20\n        /* \"#utility.yul\":9714:9723   */\n      dup3\n        /* \"#utility.yul\":9710:9728   */\n      add\n        /* \"#utility.yul\":9702:9728   */\n      swap1\n      pop\n        /* \"#utility.yul\":9774:9783   */\n      dup2\n        /* \"#utility.yul\":9768:9772   */\n      dup2\n        /* \"#utility.yul\":9764:9784   */\n      sub\n        /* \"#utility.yul\":9760:9761   */\n      0x00\n        /* \"#utility.yul\":9749:9758   */\n      dup4\n        /* \"#utility.yul\":9745:9762   */\n      add\n        /* \"#utility.yul\":9738:9785   */\n      mstore\n        /* \"#utility.yul\":9802:9933   */\n      tag_187\n        /* \"#utility.yul\":9928:9932   */\n      dup2\n        /* \"#utility.yul\":9802:9933   */\n      tag_75\n      jump\t// in\n    tag_187:\n        /* \"#utility.yul\":9794:9933   */\n      swap1\n      pop\n        /* \"#utility.yul\":9521:9940   */\n      swap2\n      swap1\n      pop\n      jump\t// out\n        /* \"#utility.yul\":9946:10087   */\n    tag_76:\n        /* \"#utility.yul\":9995:9999   */\n      0x00\n        /* \"#utility.yul\":10018:10021   */\n      dup2\n        /* \"#utility.yul\":10010:10021   */\n      swap1\n      pop\n        /* \"#utility.yul\":10041:10044   */\n      dup2\n        /* \"#utility.yul\":10038:10039   */\n      0x00\n        /* \"#utility.yul\":10031:10045   */\n      mstore\n        /* \"#utility.yul\":10075:10079   */\n      0x20\n        /* \"#utility.yul\":10072:10073   */\n      0x00\n        /* \"#utility.yul\":10062:10080   */\n      keccak256\n        /* \"#utility.yul\":10054:10080   */\n      swap1\n      pop\n        /* \"#utility.yul\":9946:10087   */\n      swap2\n      swap1\n      pop\n      jump\t// out\n        /* \"#utility.yul\":10093:10186   */\n    tag_77:\n        /* \"#utility.yul\":10130:10136   */\n      0x00\n        /* \"#utility.yul\":10177:10179   */\n      0x20\n        /* \"#utility.yul\":10172:10174   */\n      0x1f\n        /* \"#utility.yul\":10165:10170   */\n      dup4\n        /* \"#utility.yul\":10161:10175   */\n      add\n        /* \"#utility.yul\":10157:10180   */\n      div\n        /* \"#utility.yul\":10147:10180   */\n      swap1\n      pop\n        /* \"#utility.yul\":10093:10186   */\n      swap2\n      swap1\n      pop\n      jump\t// out\n        /* \"#utility.yul\":10192:10299   */\n    tag_78:\n        /* \"#utility.yul\":10236:10244   */\n      0x00\n        /* \"#utility.yul\":10286:10291   */\n      dup3\n        /* \"#utility.yul\":10280:10284   */\n      dup3\n        /* \"#utility.yul\":10276:10292   */\n      shl\n        /* \"#utility.yul\":10255:10292   */\n      swap1\n      pop\n        /* \"#utility.yul\":10192:10299   */\n      swap3\n      swap2\n      pop\n      pop\n      jump\t// out\n        /* \"#utility.yul\":10305:10698   */\n    tag_79:\n        /* \"#utility.yul\":10374:10380   */\n      0x00\n        /* \"#utility.yul\":10424:10425   */\n      0x08\n        /* \"#utility.yul\":10412:10422   */\n      dup4\n        /* \"#utility.yul\":10408:10426   */\n      mul\n        /* \"#utility.yul\":10447:10544   */\n      tag_192\n        /* \"#utility.yul\":10477:10543   */\n      0xffffffffffffffffffffffffffffffffffffffffffffffffffffffffffffffff\n        /* \"#utility.yul\":10466:10475   */\n      dup3\n        /* \"#utility.yul\":10447:10544   */\n      tag_78\n      jump\t// in\n    tag_192:\n        /* \"#utility.yul\":10565:10604   */\n      tag_193\n        /* \"#utility.yul\":10595:10603   */\n      dup7\n        /* \"#utility.yul\":10584:10593   */\n      dup4\n        /* \"#utility.yul\":10565:10604   */\n      tag_78\n      jump\t// in\n    tag_193:\n        /* \"#utility.yul\":10553:10604   */\n      swap6\n      pop\n        /* \"#utility.yul\":10637:10641   */\n      dup1\n        /* \"#utility.yul\":10633:10642   */\n      not\n        /* \"#utility.yul\":10626:10631   */\n      dup5\n        /* \"#utility.yul\":10622:10643   */\n      and\n        /* \"#utility.yul\":10613:10643   */\n      swap4\n      pop\n        /* \"#utility.yul\":10686:10690   */\n      dup1\n        /* \"#utility.yul\":10676:10684   */\n      dup7\n        /* \"#utility.yul\":10672:10691   */\n      and\n        /* \"#utility.yul\":10665:10670   */\n      dup5\n        /* \"#utility.yul\":10662:10692   */\n      or\n        /* \"#utility.yul\":10652:10692   */\n      swap3\n      pop\n        /* \"#utility.yul\":10381:10698   */\n      pop\n      pop\n        /* \"#utility.yul\":10305:10698   */\n      swap4\n      swap3\n      pop\n      pop\n      pop\n      jump\t// out\n        /* \"#utility.yul\":10704:10764   */\n    tag_80:\n        /* \"#utility.yul\":10732:10735   */\n      0x00\n        /* \"#utility.yul\":10753:10758   */\n      dup2\n        /* \"#utility.yul\":10746:10758   */\n      swap1\n      pop\n        /* \"#utility.yul\":10704:10764   */\n      swap2\n      swap1\n      pop\n      jump\t// out\n        /* \"#utility.yul\":10770:10912   */\n    tag_81:\n        /* \"#utility.yul\":10820:10829   */\n      0x00\n        /* \"#utility.yul\":10853:10906   */\n      tag_196\n        /* \"#utility.yul\":10871:10905   */\n      tag_197\n        /* \"#utility.yul\":10880:10904   */\n      tag_198\n        /* \"#utility.yul\":10898:10903   */\n      dup5\n        /* \"#utility.yul\":10880:10904   */\n      tag_65\n      jump\t// in\n    tag_198:\n        /* \"#utility.yul\":10871:10905   */\n      tag_80\n      jump\t// in\n    tag_197:\n        /* \"#utility.yul\":10853:10906   */\n      tag_65\n      jump\t// in\n    tag_196:\n        /* \"#utility.yul\":10840:10906   */\n      swap1\n      pop\n        /* \"#utility.yul\":10770:10912   */\n      swap2\n      swap1\n      pop\n      jump\t// out\n        /* \"#utility.yul\":10918:10993   */\n    tag_82:\n        /* \"#utility.yul\":10961:10964   */\n      0x00\n        /* \"#utility.yul\":10982:10987   */\n      dup2\n        /* \"#utility.yul\":10975:10987   */\n      swap1\n      pop\n        /* \"#utility.yul\":10918:10993   */\n      swap2\n      swap1\n      pop\n      jump\t// out\n        /* \"#utility.yul\":10999:11268   */\n    tag_83:\n        /* \"#utility.yul\":11109:11148   */\n      tag_201\n        /* \"#utility.yul\":11140:11147   */\n      dup4\n        /* \"#utility.yul\":11109:11148   */\n      tag_81\n      jump\t// in\n    tag_201:\n        /* \"#utility.yul\":11170:11261   */\n      tag_202\n        /* \"#utility.yul\":11219:11260   */\n      tag_203\n        /* \"#utility.yul\":11243:11259   */\n      dup3\n        /* \"#utility.yul\":11219:11260   */\n      tag_82\n      jump\t// in\n    tag_203:\n        /* \"#utility.yul\":11211:11217   */\n      dup5\n        /* \"#utility.yul\":11204:11208   */\n      dup5\n        /* \"#utility.yul\":11198:11209   */\n      sload\n        /* \"#utility.yul\":11170:11261   */\n      tag_79\n      jump\t// in\n    tag_202:\n        /* \"#utility.yul\":11164:11168   */\n      dup3\n        /* \"#utility.yul\":11157:11262   */\n      sstore\n        /* \"#utility.yul\":11075:11268   */\n      pop\n        /* \"#utility.yul\":10999:11268   */\n      pop\n      pop\n      pop\n      jump\t// out\n        /* \"#utility.yul\":11274:11347   */\n    tag_84:\n        /* \"#utility.yul\":11319:11322   */\n      0x00\n        /* \"#utility.yul\":11274:11347   */\n      swap1\n      jump\t// out\n        /* \"#utility.yul\":11353:11542   */\n    tag_85:\n        /* \"#utility.yul\":11430:11462   */\n      tag_206\n      tag_84\n      jump\t// in\n    tag_206:\n        /* \"#utility.yul\":11471:11536   */\n      tag_207\n        /* \"#utility.yul\":11529:11535   */\n      dup2\n        /* \"#utility.yul\":11521:11527   */\n      dup5\n        /* \"#utility.yul\":11515:11519   */\n      dup5\n        /* \"#utility.yul\":11471:11536   */\n      tag_83\n      jump\t// in\n    tag_207:\n        /* \"#utility.yul\":11406:11542   */\n      pop\n        /* \"#utility.yul\":11353:11542   */\n      pop\n      pop\n      jump\t// out\n        /* \"#utility.yul\":11548:11734   */\n    tag_86:\n        /* \"#utility.yul\":11608:11728   */\n    tag_209:\n        /* \"#utility.yul\":11625:11628   */\n      dup2\n        /* \"#utility.yul\":11618:11623   */\n      dup2\n        /* \"#utility.yul\":11615:11629   */\n      lt\n        /* \"#utility.yul\":11608:11728   */\n      iszero\n      tag_211\n      jumpi\n        /* \"#utility.yul\":11679:11718   */\n      tag_212\n        /* \"#utility.yul\":11716:11717   */\n      0x00\n        /* \"#utility.yul\":11709:11714   */\n      dup3\n        /* \"#utility.yul\":11679:11718   */\n      tag_85\n      jump\t// in\n    tag_212:\n        /* \"#utility.yul\":11652:11653   */\n      0x01\n        /* \"#utility.yul\":11645:11650   */\n      dup2\n        /* \"#utility.yul\":11641:11654   */\n      add\n        /* \"#utility.yul\":11632:11654   */\n      swap1\n      pop\n        /* \"#utility.yul\":11608:11728   */\n      jump(tag_209)\n    tag_211:\n        /* \"#utility.yul\":11548:11734   */\n      pop\n      pop\n      jump\t// out\n        /* \"#utility.yul\":11740:12283   */\n    tag_87:\n        /* \"#utility.yul\":11841:11843   */\n      0x1f\n        /* \"#utility.yul\":11836:11839   */\n      dup3\n        /* \"#utility.yul\":11833:11844   */\n      gt\n        /* \"#utility.yul\":11830:12276   */\n      iszero\n      tag_214\n      jumpi\n        /* \"#utility.yul\":11875:11913   */\n      tag_215\n        /* \"#utility.yul\":11907:11912   */\n      dup2\n        /* \"#utility.yul\":11875:11913   */\n      tag_76\n      jump\t// in\n    tag_215:\n        /* \"#utility.yul\":11959:11988   */\n      tag_216\n        /* \"#utility.yul\":11977:11987   */\n      dup5\n        /* \"#utility.yul\":11959:11988   */\n      tag_77\n      jump\t// in\n    tag_216:\n        /* \"#utility.yul\":11949:11957   */\n      dup2\n        /* \"#utility.yul\":11945:11989   */\n      add\n        /* \"#utility.yul\":12142:12144   */\n      0x20\n        /* \"#utility.yul\":12130:12140   */\n      dup6\n        /* \"#utility.yul\":12127:12145   */\n      lt\n        /* \"#utility.yul\":12124:12173   */\n      iszero\n      tag_217\n      jumpi\n        /* \"#utility.yul\":12163:12171   */\n      dup2\n        /* \"#utility.yul\":12148:12171   */\n      swap1\n      pop\n        /* \"#utility.yul\":12124:12173   */\n    tag_217:\n        /* \"#utility.yul\":12186:12266   */\n      tag_218\n        /* \"#utility.yul\":12242:12264   */\n      tag_219\n        /* \"#utility.yul\":12260:12263   */\n      dup6\n        /* \"#utility.yul\":12242:12264   */\n      tag_77\n      jump\t// in\n    tag_219:\n        /* \"#utility.yul\":12232:12240   */\n      dup4\n        /* \"#utility.yul\":12228:12265   */\n      add\n        /* \"#utility.yul\":12215:12226   */\n      dup3\n        /* \"#utility.yul\":12186:12266   */\n      tag_86\n      jump\t// in\n    tag_218:\n        /* \"#utility.yul\":11845:12276   */\n      pop\n      pop\n        /* \"#utility.yul\":11830:12276   */\n    tag_214:\n        /* \"#utility.yul\":11740:12283   */\n      pop\n      pop\n      pop\n      jump\t// out\n        /* \"#utility.yul\":12289:12406   */\n    tag_88:\n        /* \"#utility.yul\":12343:12351   */\n      0x00\n        /* \"#utility.yul\":12393:12398   */\n      dup3\n        /* \"#utility.yul\":12387:12391   */\n      dup3\n        /* \"#utility.yul\":12383:12399   */\n      shr\n        /* \"#utility.yul\":12362:12399   */\n      swap1\n      pop\n        /* \"#utility.yul\":12289:12406   */\n      swap3\n      swap2\n      pop\n      pop\n      jump\t// out\n        /* \"#utility.yul\":12412:12581   */\n    tag_89:\n        /* \"#utility.yul\":12456:12462   */\n      0x00\n        /* \"#utility.yul\":12489:12540   */\n      tag_222\n        /* \"#utility.yul\":12537:12538   */\n      0x00\n        /* \"#utility.yul\":12533:12539   */\n      not\n        /* \"#utility.yul\":12525:12530   */\n      dup5\n        /* \"#utility.yul\":12522:12523   */\n      0x08\n        /* \"#utility.yul\":12518:12531   */\n      mul\n        /* \"#utility.yul\":12489:12540   */\n      tag_88\n      jump\t// in\n    tag_222:\n        /* \"#utility.yul\":12485:12541   */\n      not\n        /* \"#utility.yul\":12570:12574   */\n      dup1\n        /* \"#utility.yul\":12564:12568   */\n      dup4\n        /* \"#utility.yul\":12560:12575   */\n      and\n        /* \"#utility.yul\":12550:12575   */\n      swap2\n      pop\n        /* \"#utility.yul\":12463:12581   */\n      pop\n        /* \"#utility.yul\":12412:12581   */\n      swap3\n      swap2\n      pop\n      pop\n      jump\t// out\n        /* \"#utility.yul\":12586:12881   */\n    tag_90:\n        /* \"#utility.yul\":12662:12666   */\n      0x00\n        /* \"#utility.yul\":12808:12837   */\n      tag_224\n        /* \"#utility.yul\":12833:12836   */\n      dup4\n        /* \"#utility.yul\":12827:12831   */\n      dup4\n        /* \"#utility.yul\":12808:12837   */\n      tag_89\n      jump\t// in\n    tag_224:\n        /* \"#utility.yul\":12800:12837   */\n      swap2\n      pop\n        /* \"#utility.yul\":12870:12873   */\n      dup3\n        /* \"#utility.yul\":12867:12868   */\n      0x02\n        /* \"#utility.yul\":12863:12874   */\n      mul\n        /* \"#utility.yul\":12857:12861   */\n      dup3\n        /* \"#utility.yul\":12854:12875   */\n      or\n        /* \"#utility.yul\":12846:12875   */\n      swap1\n      pop\n        /* \"#utility.yul\":12586:12881   */\n      swap3\n      swap2\n      pop\n      pop\n      jump\t// out\n        /* \"#utility.yul\":12886:14281   */\n    tag_43:\n        /* \"#utility.yul\":13003:13040   */\n      tag_226\n        /* \"#utility.yul\":13036:13039   */\n      dup3\n        /* \"#utility.yul\":13003:13040   */\n      tag_61\n      jump\t// in\n    tag_226:\n        /* \"#utility.yul\":13105:13123   */\n      0xffffffffffffffff\n        /* \"#utility.yul\":13097:13103   */\n      dup2\n        /* \"#utility.yul\":13094:13124   */\n      gt\n        /* \"#utility.yul\":13091:13147   */\n      iszero\n      tag_227\n      jumpi\n        /* \"#utility.yul\":13127:13145   */\n      tag_228\n      tag_54\n      jump\t// in\n    tag_228:\n        /* \"#utility.yul\":13091:13147   */\n    tag_227:\n        /* \"#utility.yul\":13171:13209   */\n      tag_229\n        /* \"#utility.yul\":13203:13207   */\n      dup3\n        /* \"#utility.yul\":13197:13208   */\n      sload\n        /* \"#utility.yul\":13171:13209   */\n      tag_16\n      jump\t// in\n    tag_229:\n        /* \"#utility.yul\":13256:13323   */\n      tag_230\n        /* \"#utility.yul\":13316:13322   */\n      dup3\n        /* \"#utility.yul\":13308:13314   */\n      dup3\n        /* \"#utility.yul\":13302:13306   */\n      dup6\n        /* \"#utility.yul\":13256:13323   */\n      tag_87\n      jump\t// in\n    tag_230:\n        /* \"#utility.yul\":13350:13351   */\n      0x00\n        /* \"#utility.yul\":13374:13378   */\n      0x20\n        /* \"#utility.yul\":13361:13378   */\n      swap1\n      pop\n        /* \"#utility.yul\":13406:13408   */\n      0x1f\n        /* \"#utility.yul\":13398:13404   */\n      dup4\n        /* \"#utility.yul\":13395:13409   */\n      gt\n        /* \"#utility.yul\":13423:13424   */\n      0x01\n        /* \"#utility.yul\":13418:14036   */\n      dup2\n      eq\n      tag_232\n      jumpi\n        /* \"#utility.yul\":14080:14081   */\n      0x00\n        /* \"#utility.yul\":14097:14103   */\n      dup5\n        /* \"#utility.yul\":14094:14171   */\n      iszero\n      tag_233\n      jumpi\n        /* \"#utility.yul\":14146:14155   */\n      dup3\n        /* \"#utility.yul\":14141:14144   */\n      dup8\n        /* \"#utility.yul\":14137:14156   */\n      add\n        /* \"#utility.yul\":14131:14157   */\n      mload\n        /* \"#utility.yul\":14122:14157   */\n      swap1\n      pop\n        /* \"#utility.yul\":14094:14171   */\n    tag_233:\n        /* \"#utility.yul\":14197:14264   */\n      tag_234\n        /* \"#utility.yul\":14257:14263   */\n      dup6\n        /* \"#utility.yul\":14250:14255   */\n      dup3\n        /* \"#utility.yul\":14197:14264   */\n      tag_90\n      jump\t// in\n    tag_234:\n        /* \"#utility.yul\":14191:14195   */\n      dup7\n        /* \"#utility.yul\":14184:14265   */\n      sstore\n        /* \"#utility.yul\":14053:14275   */\n      pop\n        /* \"#utility.yul\":13388:14275   */\n      jump(tag_231)\n        /* \"#utility.yul\":13418:14036   */\n    tag_232:\n        /* \"#utility.yul\":13470:13474   */\n      0x1f\n        /* \"#utility.yul\":13466:13475   */\n      not\n        /* \"#utility.yul\":13458:13464   */\n      dup5\n        /* \"#utility.yul\":13454:13476   */\n      and\n        /* \"#utility.yul\":13504:13541   */\n      tag_235\n        /* \"#utility.yul\":13536:13540   */\n      dup7\n        /* \"#utility.yul\":13504:13541   */\n      tag_76\n      jump\t// in\n    tag_235:\n        /* \"#utility.yul\":13563:13564   */\n      0x00\n        /* \"#utility.yul\":13577:13785   */\n    tag_236:\n        /* \"#utility.yul\":13591:13598   */\n      dup3\n        /* \"#utility.yul\":13588:13589   */\n      dup2\n        /* \"#utility.yul\":13585:13599   */\n      lt\n        /* \"#utility.yul\":13577:13785   */\n      iszero\n      tag_238\n      jumpi\n        /* \"#utility.yul\":13670:13679   */\n      dup5\n        /* \"#utility.yul\":13665:13668   */\n      dup10\n        /* \"#utility.yul\":13661:13680   */\n      add\n        /* \"#utility.yul\":13655:13681   */\n      mload\n        /* \"#utility.yul\":13647:13653   */\n      dup3\n        /* \"#utility.yul\":13640:13682   */\n      sstore\n        /* \"#utility.yul\":13721:13722   */\n      0x01\n        /* \"#utility.yul\":13713:13719   */\n      dup3\n        /* \"#utility.yul\":13709:13723   */\n      add\n        /* \"#utility.yul\":13699:13723   */\n      swap2\n      pop\n        /* \"#utility.yul\":13768:13770   */\n      0x20\n        /* \"#utility.yul\":13757:13766   */\n      dup6\n        /* \"#utility.yul\":13753:13771   */\n      add\n        /* \"#utility.yul\":13740:13771   */\n      swap5\n      pop\n        /* \"#utility.yul\":13614:13618   */\n      0x20\n        /* \"#utility.yul\":13611:13612   */\n      dup2\n        /* \"#utility.yul\":13607:13619   */\n      add\n        /* \"#utility.yul\":13602:13619   */\n      swap1\n      pop\n        /* \"#utility.yul\":13577:13785   */\n      jump(tag_236)\n    tag_238:\n        /* \"#utility.yul\":13813:13819   */\n      dup7\n        /* \"#utility.yul\":13804:13811   */\n      dup4\n        /* \"#utility.yul\":13801:13820   */\n      lt\n        /* \"#utility.yul\":13798:13977   */\n      iszero\n      tag_239\n      jumpi\n        /* \"#utility.yul\":13871:13880   */\n      dup5\n        /* \"#utility.yul\":13866:13869   */\n      dup10\n        /* \"#utility.yul\":13862:13881   */\n      add\n        /* \"#utility.yul\":13856:13882   */\n      mload\n        /* \"#utility.yul\":13914:13962   */\n      tag_240\n        /* \"#utility.yul\":13956:13960   */\n      0x1f\n        /* \"#utility.yul\":13948:13954   */\n      dup10\n        /* \"#utility.yul\":13944:13961   */\n      and\n        /* \"#utility.yul\":13933:13942   */\n      dup3\n        /* \"#utility.yul\":13914:13962   */\n      tag_89\n      jump\t// in\n    tag_240:\n        /* \"#utility.yul\":13906:13912   */\n      dup4\n        /* \"#utility.yul\":13899:13963   */\n      sstore\n        /* \"#utility.yul\":13821:13977   */\n      pop\n        /* \"#utility.yul\":13798:13977   */\n    tag_239:\n        /* \"#utility.yul\":14023:14024   */\n      0x01\n        /* \"#utility.yul\":14019:14020   */\n      0x02\n        /* \"#utility.yul\":14011:14017   */\n      dup9\n        /* \"#utility.yul\":14007:14021   */\n      mul\n        /* \"#utility.yul\":14003:14025   */\n      add\n        /* \"#utility.yul\":13997:14001   */\n      dup9\n        /* \"#utility.yul\":13990:14026   */\n      sstore\n        /* \"#utility.yul\":13425:14036   */\n      pop\n      pop\n      pop\n        /* \"#utility.yul\":13388:14275   */\n    tag_231:\n      pop\n        /* \"#utility.yul\":12978:14281   */\n      pop\n      pop\n      pop\n        /* \"#utility.yul\":12886:14281   */\n      pop\n      pop\n      jump\t// out\n        /* \"#utility.yul\":14287:14600   */\n    tag_47:\n        /* \"#utility.yul\":14400:14404   */\n      0x00\n        /* \"#utility.yul\":14438:14440   */\n      0x20\n        /* \"#utility.yul\":14427:14436   */\n      dup3\n        /* \"#utility.yul\":14423:14441   */\n      add\n        /* \"#utility.yul\":14415:14441   */\n      swap1\n      pop\n        /* \"#utility.yul\":14487:14496   */\n      dup2\n        /* \"#utility.yul\":14481:14485   */\n      dup2\n        /* \"#utility.yul\":14477:14497   */\n      sub\n        /* \"#utility.yul\":14473:14474   */\n      0x00\n        /* \"#utility.yul\":14462:14471   */\n      dup4\n        /* \"#utility.yul\":14458:14475   */\n      add\n        /* \"#utility.yul\":14451:14498   */\n      mstore\n        /* \"#utility.yul\":14515:14593   */\n      tag_242\n        /* \"#utility.yul\":14588:14592   */\n      dup2\n        /* \"#utility.yul\":14579:14585   */\n      dup5\n        /* \"#utility.yul\":14515:14593   */\n      tag_64\n      jump\t// in\n    tag_242:\n        /* \"#utility.yul\":14507:14593   */\n      swap1\n      pop\n        /* \"#utility.yul\":14287:14600   */\n      swap3\n      swap2\n      pop\n      pop\n      jump\t// out\n\n    auxdata: 0xa2646970667358221220b51b6a0c303cc5cd847f7671ff0c5ada2e6bdfe386fb4cbcd0f4db72c5116f0664736f6c63430008120033\n}\n",
				"bytecode": {
					"linkReferences": {},
					"object": "608060405234801561001057600080fd5b50610be9806100206000396000f3fe608060405234801561001057600080fd5b50600436106100365760003560e01c80632b9dfe801461003b578063598e14551461006e575b600080fd5b61005560048036038101906100509190610540565b61008a565b6040516100659493929190610621565b60405180910390f35b610088600480360381019061008391906106a7565b610268565b005b6000818051602081018201805184825260208301602085012081835280955050505050506000915090508060000180546100c390610791565b80601f01602080910402602001604051908101604052809291908181526020018280546100ef90610791565b801561013c5780601f106101115761010080835404028352916020019161013c565b820191906000526020600020905b81548152906001019060200180831161011f57829003601f168201915b50505050509080600101805461015190610791565b80601f016020809104026020016040519081016040528092919081815260200182805461017d90610791565b80156101ca5780601f1061019f576101008083540402835291602001916101ca565b820191906000526020600020905b8154815290600101906020018083116101ad57829003601f168201915b5050505050908060020154908060030180546101e590610791565b80601f016020809104026020016040519081016040528092919081815260200182805461021190610791565b801561025e5780601f106102335761010080835404028352916020019161025e565b820191906000526020600020905b81548152906001019060200180831161024157829003601f168201915b5050505050905084565b60008451116102ac576040517f08c379a00000000000000000000000000000000000000000000000000000000081526004016102a39061080e565b60405180910390fd5b600080856040516102bd919061086a565b908152602001604051809103902060000180546102d990610791565b90501461031b576040517f08c379a0000000000000000000000000000000000000000000000000000000008152600401610312906108f3565b60405180910390fd5b60405180608001604052808581526020018481526020018381526020018281525060008560405161034c919061086a565b9081526020016040518091039020600082015181600001908161036f9190610abf565b5060208201518160010190816103859190610abf565b506040820151816002015560608201518160030190816103a59190610abf565b509050507f272b168e2afaa6efdce672a6f4f4f1b37eb61405daf39e4b520beeeacb2596ef846040516103d89190610b91565b60405180910390a150505050565b6000604051905090565b600080fd5b600080fd5b600080fd5b600080fd5b6000601f19601f8301169050919050565b7f4e487b7100000000000000000000000000000000000000000000000000000000600052604160045260246000fd5b61044d82610404565b810181811067ffffffffffffffff8211171561046c5761046b610415565b5b80604052505050565b600061047f6103e6565b905061048b8282610444565b919050565b600067ffffffffffffffff8211156104ab576104aa610415565b5b6104b482610404565b9050602081019050919050565b82818337600083830152505050565b60006104e36104de84610490565b610475565b9050828152602081018484840111156104ff576104fe6103ff565b5b61050a8482856104c1565b509392505050565b600082601f830112610527576105266103fa565b5b81356105378482602086016104d0565b91505092915050565b600060208284031215610556576105556103f0565b5b600082013567ffffffffffffffff811115610574576105736103f5565b5b61058084828501610512565b91505092915050565b600081519050919050565b600082825260208201905092915050565b60005b838110156105c35780820151818401526020810190506105a8565b60008484015250505050565b60006105da82610589565b6105e48185610594565b93506105f48185602086016105a5565b6105fd81610404565b840191505092915050565b6000819050919050565b61061b81610608565b82525050565b6000608082019050818103600083015261063b81876105cf565b9050818103602083015261064f81866105cf565b905061065e6040830185610612565b818103606083015261067081846105cf565b905095945050505050565b61068481610608565b811461068f57600080fd5b50565b6000813590506106a18161067b565b92915050565b600080600080608085870312156106c1576106c06103f0565b5b600085013567ffffffffffffffff8111156106df576106de6103f5565b5b6106eb87828801610512565b945050602085013567ffffffffffffffff81111561070c5761070b6103f5565b5b61071887828801610512565b935050604061072987828801610692565b925050606085013567ffffffffffffffff81111561074a576107496103f5565b5b61075687828801610512565b91505092959194509250565b7f4e487b7100000000000000000000000000000000000000000000000000000000600052602260045260246000fd5b600060028204905060018216806107a957607f821691505b6020821081036107bc576107bb610762565b5b50919050565b7f4953424e2063616e6e6f7420626520656d707479000000000000000000000000600082015250565b60006107f8601483610594565b9150610803826107c2565b602082019050919050565b60006020820190508181036000830152610827816107eb565b9050919050565b600081905092915050565b600061084482610589565b61084e818561082e565b935061085e8185602086016105a5565b80840191505092915050565b60006108768284610839565b915081905092915050565b7f426f6f6b20776974682074686973204953424e20616c7265616479206578697360008201527f7473000000000000000000000000000000000000000000000000000000000000602082015250565b60006108dd602283610594565b91506108e882610881565b604082019050919050565b6000602082019050818103600083015261090c816108d0565b9050919050565b60008190508160005260206000209050919050565b60006020601f8301049050919050565b600082821b905092915050565b6000600883026109757fffffffffffffffffffffffffffffffffffffffffffffffffffffffffffffffff82610938565b61097f8683610938565b95508019841693508086168417925050509392505050565b6000819050919050565b60006109bc6109b76109b284610608565b610997565b610608565b9050919050565b6000819050919050565b6109d6836109a1565b6109ea6109e2826109c3565b848454610945565b825550505050565b600090565b6109ff6109f2565b610a0a8184846109cd565b505050565b5b81811015610a2e57610a236000826109f7565b600181019050610a10565b5050565b601f821115610a7357610a4481610913565b610a4d84610928565b81016020851015610a5c578190505b610a70610a6885610928565b830182610a0f565b50505b505050565b600082821c905092915050565b6000610a9660001984600802610a78565b1980831691505092915050565b6000610aaf8383610a85565b9150826002028217905092915050565b610ac882610589565b67ffffffffffffffff811115610ae157610ae0610415565b5b610aeb8254610791565b610af6828285610a32565b600060209050601f831160018114610b295760008415610b17578287015190505b610b218582610aa3565b865550610b89565b601f198416610b3786610913565b60005b82811015610b5f57848901518255600182019150602085019450602081019050610b3a565b86831015610b7c5784890151610b78601f891682610a85565b8355505b6001600288020188555050505b505050505050565b60006020820190508181036000830152610bab81846105cf565b90509291505056fea2646970667358221220b51b6a0c303cc5cd847f7671ff0c5ada2e6bdfe386fb4cbcd0f4db72c5116f0664736f6c63430008120033",
					"opcodes": "PUSH1 0x80 PUSH1 0x40 MSTORE CALLVALUE DUP1 ISZERO PUSH2 0x10 JUMPI PUSH1 0x0 DUP1 REVERT JUMPDEST POP PUSH2 0xBE9 DUP1 PUSH2 0x20 PUSH1 0x0 CODECOPY PUSH1 0x0 RETURN INVALID PUSH1 0x80 PUSH1 0x40 MSTORE CALLVALUE DUP1 ISZERO PUSH2 0x10 JUMPI PUSH1 0x0 DUP1 REVERT JUMPDEST POP PUSH1 0x4 CALLDATASIZE LT PUSH2 0x36 JUMPI PUSH1 0x0 CALLDATALOAD PUSH1 0xE0 SHR DUP1 PUSH4 0x2B9DFE80 EQ PUSH2 0x3B JUMPI DUP1 PUSH4 0x598E1455 EQ PUSH2 0x6E JUMPI JUMPDEST PUSH1 0x0 DUP1 REVERT JUMPDEST PUSH2 0x55 PUSH1 0x4 DUP1 CALLDATASIZE SUB DUP2 ADD SWAP1 PUSH2 0x50 SWAP2 SWAP1 PUSH2 0x540 JUMP JUMPDEST PUSH2 0x8A JUMP JUMPDEST PUSH1 0x40 MLOAD PUSH2 0x65 SWAP5 SWAP4 SWAP3 SWAP2 SWAP1 PUSH2 0x621 JUMP JUMPDEST PUSH1 0x40 MLOAD DUP1 SWAP2 SUB SWAP1 RETURN JUMPDEST PUSH2 0x88 PUSH1 0x4 DUP1 CALLDATASIZE SUB DUP2 ADD SWAP1 PUSH2 0x83 SWAP2 SWAP1 PUSH2 0x6A7 JUMP JUMPDEST PUSH2 0x268 JUMP JUMPDEST STOP JUMPDEST PUSH1 0x0 DUP2 DUP1 MLOAD PUSH1 0x20 DUP2 ADD DUP3 ADD DUP1 MLOAD DUP5 DUP3 MSTORE PUSH1 0x20 DUP4 ADD PUSH1 0x20 DUP6 ADD KECCAK256 DUP2 DUP4 MSTORE DUP1 SWAP6 POP POP POP POP POP POP PUSH1 0x0 SWAP2 POP SWAP1 POP DUP1 PUSH1 0x0 ADD DUP1 SLOAD PUSH2 0xC3 SWAP1 PUSH2 0x791 JUMP JUMPDEST DUP1 PUSH1 0x1F ADD PUSH1 0x20 DUP1 SWAP2 DIV MUL PUSH1 0x20 ADD PUSH1 0x40 MLOAD SWAP1 DUP2 ADD PUSH1 0x40 MSTORE DUP1 SWAP3 SWAP2 SWAP1 DUP2 DUP2 MSTORE PUSH1 0x20 ADD DUP3 DUP1 SLOAD PUSH2 0xEF SWAP1 PUSH2 0x791 JUMP JUMPDEST DUP1 ISZERO PUSH2 0x13C JUMPI DUP1 PUSH1 0x1F LT PUSH2 0x111 JUMPI PUSH2 0x100 DUP1 DUP4 SLOAD DIV MUL DUP4 MSTORE SWAP2 PUSH1 0x20 ADD SWAP2 PUSH2 0x13C JUMP JUMPDEST DUP3 ADD SWAP2 SWAP1 PUSH1 0x0 MSTORE PUSH1 0x20 PUSH1 0x0 KECCAK256 SWAP1 JUMPDEST DUP2 SLOAD DUP2 MSTORE SWAP1 PUSH1 0x1 ADD SWAP1 PUSH1 0x20 ADD DUP1 DUP4 GT PUSH2 0x11F JUMPI DUP3 SWAP1 SUB PUSH1 0x1F AND DUP3 ADD SWAP2 JUMPDEST POP POP POP POP POP SWAP1 DUP1 PUSH1 0x1 ADD DUP1 SLOAD PUSH2 0x151 SWAP1 PUSH2 0x791 JUMP JUMPDEST DUP1 PUSH1 0x1F ADD PUSH1 0x20 DUP1 SWAP2 DIV MUL PUSH1 0x20 ADD PUSH1 0x40 MLOAD SWAP1 DUP2 ADD PUSH1 0x40 MSTORE DUP1 SWAP3 SWAP2 SWAP1 DUP2 DUP2 MSTORE PUSH1 0x20 ADD DUP3 DUP1 SLOAD PUSH2 0x17D SWAP1 PUSH2 0x791 JUMP JUMPDEST DUP1 ISZERO PUSH2 0x1CA JUMPI DUP1 PUSH1 0x1F LT PUSH2 0x19F JUMPI PUSH2 0x100 DUP1 DUP4 SLOAD DIV MUL DUP4 MSTORE SWAP2 PUSH1 0x20 ADD SWAP2 PUSH2 0x1CA JUMP JUMPDEST DUP3 ADD SWAP2 SWAP1 PUSH1 0x0 MSTORE PUSH1 0x20 PUSH1 0x0 KECCAK256 SWAP1 JUMPDEST DUP2 SLOAD DUP2 MSTORE SWAP1 PUSH1 0x1 ADD SWAP1 PUSH1 0x20 ADD DUP1 DUP4 GT PUSH2 0x1AD JUMPI DUP3 SWAP1 SUB PUSH1 0x1F AND DUP3 ADD SWAP2 JUMPDEST POP POP POP POP POP SWAP1 DUP1 PUSH1 0x2 ADD SLOAD SWAP1 DUP1 PUSH1 0x3 ADD DUP1 SLOAD PUSH2 0x1E5 SWAP1 PUSH2 0x791 JUMP JUMPDEST DUP1 PUSH1 0x1F ADD PUSH1 0x20 DUP1 SWAP2 DIV MUL PUSH1 0x20 ADD PUSH1 0x40 MLOAD SWAP1 DUP2 ADD PUSH1 0x40 MSTORE DUP1 SWAP3 SWAP2 SWAP1 DUP2 DUP2 MSTORE PUSH1 0x20 ADD DUP3 DUP1 SLOAD PUSH2 0x211 SWAP1 PUSH2 0x791 JUMP JUMPDEST DUP1 ISZERO PUSH2 0x25E JUMPI DUP1 PUSH1 0x1F LT PUSH2 0x233 JUMPI PUSH2 0x100 DUP1 DUP4 SLOAD DIV MUL DUP4 MSTORE SWAP2 PUSH1 0x20 ADD SWAP2 PUSH2 0x25E JUMP JUMPDEST DUP3 ADD SWAP2 SWAP1 PUSH1 0x0 MSTORE PUSH1 0x20 PUSH1 0x0 KECCAK256 SWAP1 JUMPDEST DUP2 SLOAD DUP2 MSTORE SWAP1 PUSH1 0x1 ADD SWAP1 PUSH1 0x20 ADD DUP1 DUP4 GT PUSH2 0x241 JUMPI DUP3 SWAP1 SUB PUSH1 0x1F AND DUP3 ADD SWAP2 JUMPDEST POP POP POP POP POP SWAP1 POP DUP5 JUMP JUMPDEST PUSH1 0x0 DUP5 MLOAD GT PUSH2 0x2AC JUMPI PUSH1 0x40 MLOAD PUSH32 0x8C379A000000000000000000000000000000000000000000000000000000000 DUP2 MSTORE PUSH1 0x4 ADD PUSH2 0x2A3 SWAP1 PUSH2 0x80E JUMP JUMPDEST PUSH1 0x40 MLOAD DUP1 SWAP2 SUB SWAP1 REVERT JUMPDEST PUSH1 0x0 DUP1 DUP6 PUSH1 0x40 MLOAD PUSH2 0x2BD SWAP2 SWAP1 PUSH2 0x86A JUMP JUMPDEST SWAP1 DUP2 MSTORE PUSH1 0x20 ADD PUSH1 0x40 MLOAD DUP1 SWAP2 SUB SWAP1 KECCAK256 PUSH1 0x0 ADD DUP1 SLOAD PUSH2 0x2D9 SWAP1 PUSH2 0x791 JUMP JUMPDEST SWAP1 POP EQ PUSH2 0x31B JUMPI PUSH1 0x40 MLOAD PUSH32 0x8C379A000000000000000000000000000000000000000000000000000000000 DUP2 MSTORE PUSH1 0x4 ADD PUSH2 0x312 SWAP1 PUSH2 0x8F3 JUMP JUMPDEST PUSH1 0x40 MLOAD DUP1 SWAP2 SUB SWAP1 REVERT JUMPDEST PUSH1 0x40 MLOAD DUP1 PUSH1 0x80 ADD PUSH1 0x40 MSTORE DUP1 DUP6 DUP2 MSTORE PUSH1 0x20 ADD DUP5 DUP2 MSTORE PUSH1 0x20 ADD DUP4 DUP2 MSTORE PUSH1 0x20 ADD DUP3 DUP2 MSTORE POP PUSH1 0x0 DUP6 PUSH1 0x40 MLOAD PUSH2 0x34C SWAP2 SWAP1 PUSH2 0x86A JUMP JUMPDEST SWAP1 DUP2 MSTORE PUSH1 0x20 ADD PUSH1 0x40 MLOAD DUP1 SWAP2 SUB SWAP1 KECCAK256 PUSH1 0x0 DUP3 ADD MLOAD DUP2 PUSH1 0x0 ADD SWAP1 DUP2 PUSH2 0x36F SWAP2 SWAP1 PUSH2 0xABF JUMP JUMPDEST POP PUSH1 0x20 DUP3 ADD MLOAD DUP2 PUSH1 0x1 ADD SWAP1 DUP2 PUSH2 0x385 SWAP2 SWAP1 PUSH2 0xABF JUMP JUMPDEST POP PUSH1 0x40 DUP3 ADD MLOAD DUP2 PUSH1 0x2 ADD SSTORE PUSH1 0x60 DUP3 ADD MLOAD DUP2 PUSH1 0x3 ADD SWAP1 DUP2 PUSH2 0x3A5 SWAP2 SWAP1 PUSH2 0xABF JUMP JUMPDEST POP SWAP1 POP POP PUSH32 0x272B168E2AFAA6EFDCE672A6F4F4F1B37EB61405DAF39E4B520BEEEACB2596EF DUP5 PUSH1 0x40 MLOAD PUSH2 0x3D8 SWAP2 SWAP1 PUSH2 0xB91 JUMP JUMPDEST PUSH1 0x40 MLOAD DUP1 SWAP2 SUB SWAP1 LOG1 POP POP POP POP JUMP JUMPDEST PUSH1 0x0 PUSH1 0x40 MLOAD SWAP1 POP SWAP1 JUMP JUMPDEST PUSH1 0x0 DUP1 REVERT JUMPDEST PUSH1 0x0 DUP1 REVERT JUMPDEST PUSH1 0x0 DUP1 REVERT JUMPDEST PUSH1 0x0 DUP1 REVERT JUMPDEST PUSH1 0x0 PUSH1 0x1F NOT PUSH1 0x1F DUP4 ADD AND SWAP1 POP SWAP2 SWAP1 POP JUMP JUMPDEST PUSH32 0x4E487B7100000000000000000000000000000000000000000000000000000000 PUSH1 0x0 MSTORE PUSH1 0x41 PUSH1 0x4 MSTORE PUSH1 0x24 PUSH1 0x0 REVERT JUMPDEST PUSH2 0x44D DUP3 PUSH2 0x404 JUMP JUMPDEST DUP2 ADD DUP2 DUP2 LT PUSH8 0xFFFFFFFFFFFFFFFF DUP3 GT OR ISZERO PUSH2 0x46C JUMPI PUSH2 0x46B PUSH2 0x415 JUMP JUMPDEST JUMPDEST DUP1 PUSH1 0x40 MSTORE POP POP POP JUMP JUMPDEST PUSH1 0x0 PUSH2 0x47F PUSH2 0x3E6 JUMP JUMPDEST SWAP1 POP PUSH2 0x48B DUP3 DUP3 PUSH2 0x444 JUMP JUMPDEST SWAP2 SWAP1 POP JUMP JUMPDEST PUSH1 0x0 PUSH8 0xFFFFFFFFFFFFFFFF DUP3 GT ISZERO PUSH2 0x4AB JUMPI PUSH2 0x4AA PUSH2 0x415 JUMP JUMPDEST JUMPDEST PUSH2 0x4B4 DUP3 PUSH2 0x404 JUMP JUMPDEST SWAP1 POP PUSH1 0x20 DUP2 ADD SWAP1 POP SWAP2 SWAP1 POP JUMP JUMPDEST DUP3 DUP2 DUP4 CALLDATACOPY PUSH1 0x0 DUP4 DUP4 ADD MSTORE POP POP POP JUMP JUMPDEST PUSH1 0x0 PUSH2 0x4E3 PUSH2 0x4DE DUP5 PUSH2 0x490 JUMP JUMPDEST PUSH2 0x475 JUMP JUMPDEST SWAP1 POP DUP3 DUP2 MSTORE PUSH1 0x20 DUP2 ADD DUP5 DUP5 DUP5 ADD GT ISZERO PUSH2 0x4FF JUMPI PUSH2 0x4FE PUSH2 0x3FF JUMP JUMPDEST JUMPDEST PUSH2 0x50A DUP5 DUP3 DUP6 PUSH2 0x4C1 JUMP JUMPDEST POP SWAP4 SWAP3 POP POP POP JUMP JUMPDEST PUSH1 0x0 DUP3 PUSH1 0x1F DUP4 ADD SLT PUSH2 0x527 JUMPI PUSH2 0x526 PUSH2 0x3FA JUMP JUMPDEST JUMPDEST DUP2 CALLDATALOAD PUSH2 0x537 DUP5 DUP3 PUSH1 0x20 DUP7 ADD PUSH2 0x4D0 JUMP JUMPDEST SWAP2 POP POP SWAP3 SWAP2 POP POP JUMP JUMPDEST PUSH1 0x0 PUSH1 0x20 DUP3 DUP5 SUB SLT ISZERO PUSH2 0x556 JUMPI PUSH2 0x555 PUSH2 0x3F0 JUMP JUMPDEST JUMPDEST PUSH1 0x0 DUP3 ADD CALLDATALOAD PUSH8 0xFFFFFFFFFFFFFFFF DUP2 GT ISZERO PUSH2 0x574 JUMPI PUSH2 0x573 PUSH2 0x3F5 JUMP JUMPDEST JUMPDEST PUSH2 0x580 DUP5 DUP3 DUP6 ADD PUSH2 0x512 JUMP JUMPDEST SWAP2 POP POP SWAP3 SWAP2 POP POP JUMP JUMPDEST PUSH1 0x0 DUP2 MLOAD SWAP1 POP SWAP2 SWAP1 POP JUMP JUMPDEST PUSH1 0x0 DUP3 DUP3 MSTORE PUSH1 0x20 DUP3 ADD SWAP1 POP SWAP3 SWAP2 POP POP JUMP JUMPDEST PUSH1 0x0 JUMPDEST DUP4 DUP2 LT ISZERO PUSH2 0x5C3 JUMPI DUP1 DUP3 ADD MLOAD DUP2 DUP5 ADD MSTORE PUSH1 0x20 DUP2 ADD SWAP1 POP PUSH2 0x5A8 JUMP JUMPDEST PUSH1 0x0 DUP5 DUP5 ADD MSTORE POP POP POP POP JUMP JUMPDEST PUSH1 0x0 PUSH2 0x5DA DUP3 PUSH2 0x589 JUMP JUMPDEST PUSH2 0x5E4 DUP2 DUP6 PUSH2 0x594 JUMP JUMPDEST SWAP4 POP PUSH2 0x5F4 DUP2 DUP6 PUSH1 0x20 DUP7 ADD PUSH2 0x5A5 JUMP JUMPDEST PUSH2 0x5FD DUP2 PUSH2 0x404 JUMP JUMPDEST DUP5 ADD SWAP2 POP POP SWAP3 SWAP2 POP POP JUMP JUMPDEST PUSH1 0x0 DUP2 SWAP1 POP SWAP2 SWAP1 POP JUMP JUMPDEST PUSH2 0x61B DUP2 PUSH2 0x608 JUMP JUMPDEST DUP3 MSTORE POP POP JUMP JUMPDEST PUSH1 0x0 PUSH1 0x80 DUP3 ADD SWAP1 POP DUP2 DUP2 SUB PUSH1 0x0 DUP4 ADD MSTORE PUSH2 0x63B DUP2 DUP8 PUSH2 0x5CF JUMP JUMPDEST SWAP1 POP DUP2 DUP2 SUB PUSH1 0x20 DUP4 ADD MSTORE PUSH2 0x64F DUP2 DUP7 PUSH2 0x5CF JUMP JUMPDEST SWAP1 POP PUSH2 0x65E PUSH1 0x40 DUP4 ADD DUP6 PUSH2 0x612 JUMP JUMPDEST DUP2 DUP2 SUB PUSH1 0x60 DUP4 ADD MSTORE PUSH2 0x670 DUP2 DUP5 PUSH2 0x5CF JUMP JUMPDEST SWAP1 POP SWAP6 SWAP5 POP POP POP POP POP JUMP JUMPDEST PUSH2 0x684 DUP2 PUSH2 0x608 JUMP JUMPDEST DUP2 EQ PUSH2 0x68F JUMPI PUSH1 0x0 DUP1 REVERT JUMPDEST POP JUMP JUMPDEST PUSH1 0x0 DUP2 CALLDATALOAD SWAP1 POP PUSH2 0x6A1 DUP2 PUSH2 0x67B JUMP JUMPDEST SWAP3 SWAP2 POP POP JUMP JUMPDEST PUSH1 0x0 DUP1 PUSH1 0x0 DUP1 PUSH1 0x80 DUP6 DUP8 SUB SLT ISZERO PUSH2 0x6C1 JUMPI PUSH2 0x6C0 PUSH2 0x3F0 JUMP JUMPDEST JUMPDEST PUSH1 0x0 DUP6 ADD CALLDATALOAD PUSH8 0xFFFFFFFFFFFFFFFF DUP2 GT ISZERO PUSH2 0x6DF JUMPI PUSH2 0x6DE PUSH2 0x3F5 JUMP JUMPDEST JUMPDEST PUSH2 0x6EB DUP8 DUP3 DUP9 ADD PUSH2 0x512 JUMP JUMPDEST SWAP5 POP POP PUSH1 0x20 DUP6 ADD CALLDATALOAD PUSH8 0xFFFFFFFFFFFFFFFF DUP2 GT ISZERO PUSH2 0x70C JUMPI PUSH2 0x70B PUSH2 0x3F5 JUMP JUMPDEST JUMPDEST PUSH2 0x718 DUP8 DUP3 DUP9 ADD PUSH2 0x512 JUMP JUMPDEST SWAP4 POP POP PUSH1 0x40 PUSH2 0x729 DUP8 DUP3 DUP9 ADD PUSH2 0x692 JUMP JUMPDEST SWAP3 POP POP PUSH1 0x60 DUP6 ADD CALLDATALOAD PUSH8 0xFFFFFFFFFFFFFFFF DUP2 GT ISZERO PUSH2 0x74A JUMPI PUSH2 0x749 PUSH2 0x3F5 JUMP JUMPDEST JUMPDEST PUSH2 0x756 DUP8 DUP3 DUP9 ADD PUSH2 0x512 JUMP JUMPDEST SWAP2 POP POP SWAP3 SWAP6 SWAP2 SWAP5 POP SWAP3 POP JUMP JUMPDEST PUSH32 0x4E487B7100000000000000000000000000000000000000000000000000000000 PUSH1 0x0 MSTORE PUSH1 0x22 PUSH1 0x4 MSTORE PUSH1 0x24 PUSH1 0x0 REVERT JUMPDEST PUSH1 0x0 PUSH1 0x2 DUP3 DIV SWAP1 POP PUSH1 0x1 DUP3 AND DUP1 PUSH2 0x7A9 JUMPI PUSH1 0x7F DUP3 AND SWAP2 POP JUMPDEST PUSH1 0x20 DUP3 LT DUP2 SUB PUSH2 0x7BC JUMPI PUSH2 0x7BB PUSH2 0x762 JUMP JUMPDEST JUMPDEST POP SWAP2 SWAP1 POP JUMP JUMPDEST PUSH32 0x4953424E2063616E6E6F7420626520656D707479000000000000000000000000 PUSH1 0x0 DUP3 ADD MSTORE POP JUMP JUMPDEST PUSH1 0x0 PUSH2 0x7F8 PUSH1 0x14 DUP4 PUSH2 0x594 JUMP JUMPDEST SWAP2 POP PUSH2 0x803 DUP3 PUSH2 0x7C2 JUMP JUMPDEST PUSH1 0x20 DUP3 ADD SWAP1 POP SWAP2 SWAP1 POP JUMP JUMPDEST PUSH1 0x0 PUSH1 0x20 DUP3 ADD SWAP1 POP DUP2 DUP2 SUB PUSH1 0x0 DUP4 ADD MSTORE PUSH2 0x827 DUP2 PUSH2 0x7EB JUMP JUMPDEST SWAP1 POP SWAP2 SWAP1 POP JUMP JUMPDEST PUSH1 0x0 DUP2 SWAP1 POP SWAP3 SWAP2 POP POP JUMP JUMPDEST PUSH1 0x0 PUSH2 0x844 DUP3 PUSH2 0x589 JUMP JUMPDEST PUSH2 0x84E DUP2 DUP6 PUSH2 0x82E JUMP JUMPDEST SWAP4 POP PUSH2 0x85E DUP2 DUP6 PUSH1 0x20 DUP7 ADD PUSH2 0x5A5 JUMP JUMPDEST DUP1 DUP5 ADD SWAP2 POP POP SWAP3 SWAP2 POP POP JUMP JUMPDEST PUSH1 0x0 PUSH2 0x876 DUP3 DUP5 PUSH2 0x839 JUMP JUMPDEST SWAP2 POP DUP2 SWAP1 POP SWAP3 SWAP2 POP POP JUMP JUMPDEST PUSH32 0x426F6F6B20776974682074686973204953424E20616C72656164792065786973 PUSH1 0x0 DUP3 ADD MSTORE PUSH32 0x7473000000000000000000000000000000000000000000000000000000000000 PUSH1 0x20 DUP3 ADD MSTORE POP JUMP JUMPDEST PUSH1 0x0 PUSH2 0x8DD PUSH1 0x22 DUP4 PUSH2 0x594 JUMP JUMPDEST SWAP2 POP PUSH2 0x8E8 DUP3 PUSH2 0x881 JUMP JUMPDEST PUSH1 0x40 DUP3 ADD SWAP1 POP SWAP2 SWAP1 POP JUMP JUMPDEST PUSH1 0x0 PUSH1 0x20 DUP3 ADD SWAP1 POP DUP2 DUP2 SUB PUSH1 0x0 DUP4 ADD MSTORE PUSH2 0x90C DUP2 PUSH2 0x8D0 JUMP JUMPDEST SWAP1 POP SWAP2 SWAP1 POP JUMP JUMPDEST PUSH1 0x0 DUP2 SWAP1 POP DUP2 PUSH1 0x0 MSTORE PUSH1 0x20 PUSH1 0x0 KECCAK256 SWAP1 POP SWAP2 SWAP1 POP JUMP JUMPDEST PUSH1 0x0 PUSH1 0x20 PUSH1 0x1F DUP4 ADD DIV SWAP1 POP SWAP2 SWAP1 POP JUMP JUMPDEST PUSH1 0x0 DUP3 DUP3 SHL SWAP1 POP SWAP3 SWAP2 POP POP JUMP JUMPDEST PUSH1 0x0 PUSH1 0x8 DUP4 MUL PUSH2 0x975 PUSH32 0xFFFFFFFFFFFFFFFFFFFFFFFFFFFFFFFFFFFFFFFFFFFFFFFFFFFFFFFFFFFFFFFF DUP3 PUSH2 0x938 JUMP JUMPDEST PUSH2 0x97F DUP7 DUP4 PUSH2 0x938 JUMP JUMPDEST SWAP6 POP DUP1 NOT DUP5 AND SWAP4 POP DUP1 DUP7 AND DUP5 OR SWAP3 POP POP POP SWAP4 SWAP3 POP POP POP JUMP JUMPDEST PUSH1 0x0 DUP2 SWAP1 POP SWAP2 SWAP1 POP JUMP JUMPDEST PUSH1 0x0 PUSH2 0x9BC PUSH2 0x9B7 PUSH2 0x9B2 DUP5 PUSH2 0x608 JUMP JUMPDEST PUSH2 0x997 JUMP JUMPDEST PUSH2 0x608 JUMP JUMPDEST SWAP1 POP SWAP2 SWAP1 POP JUMP JUMPDEST PUSH1 0x0 DUP2 SWAP1 POP SWAP2 SWAP1 POP JUMP JUMPDEST PUSH2 0x9D6 DUP4 PUSH2 0x9A1 JUMP JUMPDEST PUSH2 0x9EA PUSH2 0x9E2 DUP3 PUSH2 0x9C3 JUMP JUMPDEST DUP5 DUP5 SLOAD PUSH2 0x945 JUMP JUMPDEST DUP3 SSTORE POP POP POP POP JUMP JUMPDEST PUSH1 0x0 SWAP1 JUMP JUMPDEST PUSH2 0x9FF PUSH2 0x9F2 JUMP JUMPDEST PUSH2 0xA0A DUP2 DUP5 DUP5 PUSH2 0x9CD JUMP JUMPDEST POP POP POP JUMP JUMPDEST JUMPDEST DUP2 DUP2 LT ISZERO PUSH2 0xA2E JUMPI PUSH2 0xA23 PUSH1 0x0 DUP3 PUSH2 0x9F7 JUMP JUMPDEST PUSH1 0x1 DUP2 ADD SWAP1 POP PUSH2 0xA10 JUMP JUMPDEST POP POP JUMP JUMPDEST PUSH1 0x1F DUP3 GT ISZERO PUSH2 0xA73 JUMPI PUSH2 0xA44 DUP2 PUSH2 0x913 JUMP JUMPDEST PUSH2 0xA4D DUP5 PUSH2 0x928 JUMP JUMPDEST DUP2 ADD PUSH1 0x20 DUP6 LT ISZERO PUSH2 0xA5C JUMPI DUP2 SWAP1 POP JUMPDEST PUSH2 0xA70 PUSH2 0xA68 DUP6 PUSH2 0x928 JUMP JUMPDEST DUP4 ADD DUP3 PUSH2 0xA0F JUMP JUMPDEST POP POP JUMPDEST POP POP POP JUMP JUMPDEST PUSH1 0x0 DUP3 DUP3 SHR SWAP1 POP SWAP3 SWAP2 POP POP JUMP JUMPDEST PUSH1 0x0 PUSH2 0xA96 PUSH1 0x0 NOT DUP5 PUSH1 0x8 MUL PUSH2 0xA78 JUMP JUMPDEST NOT DUP1 DUP4 AND SWAP2 POP POP SWAP3 SWAP2 POP POP JUMP JUMPDEST PUSH1 0x0 PUSH2 0xAAF DUP4 DUP4 PUSH2 0xA85 JUMP JUMPDEST SWAP2 POP DUP3 PUSH1 0x2 MUL DUP3 OR SWAP1 POP SWAP3 SWAP2 POP POP JUMP JUMPDEST PUSH2 0xAC8 DUP3 PUSH2 0x589 JUMP JUMPDEST PUSH8 0xFFFFFFFFFFFFFFFF DUP2 GT ISZERO PUSH2 0xAE1 JUMPI PUSH2 0xAE0 PUSH2 0x415 JUMP JUMPDEST JUMPDEST PUSH2 0xAEB DUP3 SLOAD PUSH2 0x791 JUMP JUMPDEST PUSH2 0xAF6 DUP3 DUP3 DUP6 PUSH2 0xA32 JUMP JUMPDEST PUSH1 0x0 PUSH1 0x20 SWAP1 POP PUSH1 0x1F DUP4 GT PUSH1 0x1 DUP2 EQ PUSH2 0xB29 JUMPI PUSH1 0x0 DUP5 ISZERO PUSH2 0xB17 JUMPI DUP3 DUP8 ADD MLOAD SWAP1 POP JUMPDEST PUSH2 0xB21 DUP6 DUP3 PUSH2 0xAA3 JUMP JUMPDEST DUP7 SSTORE POP PUSH2 0xB89 JUMP JUMPDEST PUSH1 0x1F NOT DUP5 AND PUSH2 0xB37 DUP7 PUSH2 0x913 JUMP JUMPDEST PUSH1 0x0 JUMPDEST DUP3 DUP2 LT ISZERO PUSH2 0xB5F JUMPI DUP5 DUP10 ADD MLOAD DUP3 SSTORE PUSH1 0x1 DUP3 ADD SWAP2 POP PUSH1 0x20 DUP6 ADD SWAP5 POP PUSH1 0x20 DUP2 ADD SWAP1 POP PUSH2 0xB3A JUMP JUMPDEST DUP7 DUP4 LT ISZERO PUSH2 0xB7C JUMPI DUP5 DUP10 ADD MLOAD PUSH2 0xB78 PUSH1 0x1F DUP10 AND DUP3 PUSH2 0xA85 JUMP JUMPDEST DUP4 SSTORE POP JUMPDEST PUSH1 0x1 PUSH1 0x2 DUP9 MUL ADD DUP9 SSTORE POP POP POP JUMPDEST POP POP POP POP POP POP JUMP JUMPDEST PUSH1 0x0 PUSH1 0x20 DUP3 ADD SWAP1 POP DUP2 DUP2 SUB PUSH1 0x0 DUP4 ADD MSTORE PUSH2 0xBAB DUP2 DUP5 PUSH2 0x5CF JUMP JUMPDEST SWAP1 POP SWAP3 SWAP2 POP POP JUMP INVALID LOG2 PUSH5 0x6970667358 0x22 SLT KECCAK256 0xB5 SHL PUSH11 0xC303CC5CD847F7671FF0C GAS 0xDA 0x2E PUSH12 0xDFE386FB4CBCD0F4DB72C511 PUSH16 0x664736F6C6343000812003300000000 "
				},
				"gasEstimates": {
					"creation": {
						"codeDepositCost": "609800",
						"executionCost": "645",
						"totalCost": "610445"
					},
					"external": {
						"addBook(string,string,uint256,string)": "infinite",
						"books(string)": "infinite"
					}
				},
				"methodIdentifiers": {
					"addBook(string,string,uint256,string)": "598e1455",
					"books(string)": "2b9dfe80"
				}
			},
			"storageLayout": {
				"storage": [
					{
						"astId": 15,
						"contract": "contracts/NonAdminLibrary.sol:NonAdminLibrary",
						"label": "books",
						"offset": 0,
						"slot": "0",
						"type": "t_mapping(t_string_memory_ptr,t_struct(Book)10_storage)"
					}
				],
				"types": {
					"t_mapping(t_string_memory_ptr,t_struct(Book)10_storage)": {
						"encoding": "mapping",
						"key": "t_string_memory_ptr",
						"label": "mapping(string => struct NonAdminLibrary.Book)",
						"numberOfBytes": "32",
						"value": "t_struct(Book)10_storage"
					},
					"t_string_memory_ptr": {
						"encoding": "bytes",
						"label": "string",
						"numberOfBytes": "32"
					},
					"t_string_storage": {
						"encoding": "bytes",
						"label": "string",
						"numberOfBytes": "32"
					},
					"t_struct(Book)10_storage": {
						"encoding": "inplace",
						"label": "struct NonAdminLibrary.Book",
						"members": [
							{
								"astId": 3,
								"contract": "contracts/NonAdminLibrary.sol:NonAdminLibrary",
								"label": "isbn",
								"offset": 0,
								"slot": "0",
								"type": "t_string_storage"
							},
							{
								"astId": 5,
								"contract": "contracts/NonAdminLibrary.sol:NonAdminLibrary",
								"label": "title",
								"offset": 0,
								"slot": "1",
								"type": "t_string_storage"
							},
							{
								"astId": 7,
								"contract": "contracts/NonAdminLibrary.sol:NonAdminLibrary",
								"label": "year",
								"offset": 0,
								"slot": "2",
								"type": "t_uint256"
							},
							{
								"astId": 9,
								"contract": "contracts/NonAdminLibrary.sol:NonAdminLibrary",
								"label": "author",
								"offset": 0,
								"slot": "3",
								"type": "t_string_storage"
							}
						],
						"numberOfBytes": "128"
					},
					"t_uint256": {
						"encoding": "inplace",
						"label": "uint256",
						"numberOfBytes": "32"
					}
				}
			},
			"userdoc": {
				"kind": "user",
				"methods": {},
				"version": 1
			}
		}
	}
}